:100000000C9461000C947E000C947E000C947E0095
:100010000C947E000C947E000C947E000C947E0068
:100020000C947E000C947E000C947E000C947E0058
:100030000C947E000C947E000C947E000C947E0048
:100040000C9410020C947E000C947E000C947E00A4
:100050000C947E000C947E000C947E000C947E0028
:100060000C947E000C947E0000000000230026000B
:10007000290000000000240027002A0000000000E2
:10008000250028002B0004040404040404040202D4
:100090000202020203030303030301020408102007
:1000A0004080010204081020010204081020000012
:1000B0000008000201000003040700000000000027
:1000C000000011241FBECFEFD8E0DEBFCDBF11E08E
:1000D000A0E0B1E0E0E9F7E002C005900D92A630A3
:1000E000B107D9F721E0A6E0B1E001C01D92A53229
:1000F000B207E1F70E945A020C94C6030C94000068
:10010000833081F028F4813099F08230A9F008958D
:100110008730A9F08830C9F08430B1F48091800034
:100120008F7D03C0809180008F7780938000089539
:1001300084B58F7784BD089584B58F7DFBCF809182
:10014000B0008F778093B00008958091B0008F7DCC
:10015000F9CF1F93CF93DF93282F30E0F901E255B9
:10016000FF4F8491F901E656FF4FD491F901EA5708
:10017000FF4FC491CC23A9F0162F81110E9480005B
:10018000EC2FF0E0EE0FFF1FE458FF4FA591B49164
:100190008FB7F894EC91111108C0D095DE23DC9351
:1001A0008FBFDF91CF911F910895DE2BF8CFCF93B2
:1001B000DF9390E0FC01E656FF4F24918A579F4F52
:1001C000FC0184918823D1F090E0880F991FFC01F5
:1001D000EE58FF4FA591B491FC01E458FF4FC59133
:1001E000D491623071F49FB7F8943C91822F80953E
:1001F00083238C93E8812E2B28839FBFDF91CF919F
:1002000008958FB7F894EC912E2B2C938FBFF6CFD7
:10021000EF92FF920F931F93CF93DF938B018E503A
:10022000806480937C0080917A00806480937A005F
:1002300080917A0086FDFCCFA0917800B091790082
:100240002FEF30E00E94BF032FEF33E040E050E09B
:100250000E946F03E901790161E0802F0E94D700BD
:10026000209751F460E0802FDF91CF911F910F9183
:10027000FF90EF900C94A900CF3FD10511F461E0FD
:10028000F2CFF801E255FF4FE491E33051F148F429
:10029000E130B9F0E23001F180E8E816F1047CF7D2
:1002A000E1CFE73041F1E83071F1E430A9F7809116
:1002B0008000806280938000D0938B00C0938A007E
:1002C00004C084B5806884BDC7BDDF91CF911F9104
:1002D0000F91FF90EF90089584B5806284BDC8BDF2
:1002E000F4CF80918000806880938000D093890053
:1002F000C0938800EACF8091B00080688093B000FE
:10030000C093B300E2CF8091B00080628093B000D0
:10031000C093B400DACF8F929F92AF92BF92CF92E8
:10032000DF92EF920F931F93CF93DF93DC016B016A
:100330004A015901E801FC01E255FF4F8491FD019A
:10034000E656FF4F1491FD01EA57FF4F0491002339
:1003500009F45EC081110E948000E02FF0E0EE0FF2
:10036000FF1FE859FF4FA591B491EC911E2391E036
:1003700080E009F490E0092F182FF6018081918127
:100380008017910781F02FB7F89480912101909107
:100390002201A0912301B09124012FBFF401808399
:1003A0009183A283B3832FB7F89480912101909118
:1003B0002201A0912301B09124012FBFF4014081BB
:1003C000518162817381841B950BA60BB70BC39778
:1003D000A105B10570F00115110559F4F5018081F1
:1003E000811119C081E08083188260E08E2D0E9407
:1003F000A900F60111830083DF91CF911F910F9126
:10040000EF90DF90CF90BF90AF909F908F90089526
:1004100010E000E0B2CF688181E068276883E6CF12
:100420001F920F920FB60F9211242F933F938F9329
:100430009F93AF93BF938091210190912201A0914E
:100440002301B09124013091200123E0230F2D37A7
:1004500058F50196A11DB11D209320018093210123
:1004600090932201A0932301B093240180911C0159
:1004700090911D01A0911E01B0911F010196A11D37
:10048000B11D80931C0190931D01A0931E01B09398
:100490001F01BF91AF919F918F913F912F910F902D
:1004A0000FBE0F901F90189526E8230F0296A11DEE
:1004B000B11DD2CF789484B5826084BD84B581604B
:1004C00084BD85B5826085BD85B5816085BD80911F
:1004D0006E00816080936E00109281008091810097
:1004E000826080938100809181008160809381008F
:1004F000809180008160809380008091B100846051
:100500008093B1008091B00081608093B0008091B1
:100510007A00846080937A0080917A008260809370
:100520007A0080917A00816080937A0080917A00CD
:10053000806880937A001092C10061E08DE00E9493
:10054000D70061E08CE00E94D70061E08FE00E945C
:10055000D70061E08BE00E94D70061E08AE00E9452
:10056000D70061E089E00E94D70062E088E00E9445
:10057000D70062E087E00E94D70062E086E00E9438
:10058000D700609116018DE00E94A90060911401CE
:100590008CE00E94A900609112018FE00E94A900E6
:1005A000DD24D394C0E0D0E02FB7F89480912101EE
:1005B00090912201A0912301B09124012FBF40917D
:1005C00018015091190160911A0170911B018C0161
:1005D0009D01041B150B260B370BB901A801403DEB
:1005E00057406105710560F18093180190931901DE
:1005F000A0931A01B0931B0180911701811108C0CB
:10060000609116016D25609316018DE00E94A9008E
:1006100080911501811108C0609114016D256093CE
:1006200014018CE00E94A90080911301811112C075
:10063000609112016D25609312018FE00E94A90064
:1006400080911301811106C06FE070E08EE090E0B0
:100650000E9408016BE070E080E190E00E940801D8
:100660006AE070E081E190E00E94080169E070E0DA
:1006700082E190E00E9408018DE0E82EF12C06E175
:1006800011E027E131E04EE051E064E071E088E004
:1006900090E00E948B019CE0E92EF12C04E111E036
:1006A00025E131E04AE051E062E071E087E090E06E
:1006B0000E948B012FE0E22EF12C02E111E023E1F8
:1006C00031E046E051E060E071E086E090E00E94B9
:1006D0008B01209709F468CF0E94000065CF052E9A
:1006E00097FB1EF400940E94860357FD07D00E94DA
:1006F0008E0307FC03D04EF40C948603509540956E
:10070000309521953F4F4F4F5F4F089590958095BD
:10071000709561957F4F8F4F9F4F0895A1E21A2EDC
:10072000AA1BBB1BFD010DC0AA1FBB1FEE1FFF1F95
:10073000A217B307E407F50720F0A21BB30BE40BE5
:10074000F50B661F771F881F991F1A9469F760952C
:100750007095809590959B01AC01BD01CF010895E6
:10076000A29FB001B39FC001A39F700D811D1124F2
:10077000911DB29F700D811D1124911D08950E943D
:10078000B003B7FF0895821B930B0895F894FFCF31
:0607900001000100010060
:00000001FF
