:020000040000FA
:100000000C9462000C948A000C948A000C948A0070
:100010000C948A000C948A000C948A000C948A0038
:100020000C948A000C948A000C948A000C948A0028
:100030000C948A000C948A000C948A000C948A0018
:100040000C9455040C948A000C94C5040C949F04E1
:100050000C948A000C948A000C948A000C948A00F8
:100060000C948A000C948A000000000023002600F3
:10007000290000000000240027002A0000000000E2
:10008000250028002B0004040404040404040202D4
:100090000202020203030303030301020408102007
:1000A0004080010204081020010204081020000012
:1000B0000008000201000003040700000000000027
:1000C00000007F0811241FBECFEFD8E0DEBFCDBFF8
:1000D00011E0A0E0B1E0E6E2F7E102C005900D9288
:1000E000A038B107D9F722E0A0E8B1E001C01D9225
:1000F000A734B207E1F710E0C2E6D0E004C02197D0
:10010000FE010E948209C136D107C9F70E94F70497
:100110000C94910B0C940000833081F028F4813012
:1001200099F08230A9F008958730A9F08830C9F09D
:100130008430B1F4809180008F7D03C08091800075
:100140008F7780938000089584B58F7784BD08955C
:1001500084B58F7DFBCF8091B0008F778093B00006
:1001600008958091B0008F7DF9CF1F93CF93DF93D7
:10017000282F30E0F901E255FF4F8491F901E6564E
:10018000FF4FD491F901EA57FF4FC491CC23A9F056
:10019000162F81110E948C00EC2FF0E0EE0FFF1F54
:1001A000E458FF4FA591B4918FB7F894EC911111D9
:1001B00008C0D095DE23DC938FBFDF91CF911F91D4
:1001C0000895DE2BF8CFCF93DF9390E0FC01E65645
:1001D000FF4F24918A579F4FFC0184918823D1F0CF
:1001E00090E0880F991FFC01EE58FF4FA591B49144
:1001F000FC01E458FF4FC591D491623071F49FB770
:10020000F8943C91822F809583238C93E8812E2B48
:1002100028839FBFDF91CF9108958FB7F894EC9119
:100220002E2B2C938FBFF6CF1F93CF93DF93182FD6
:10023000EB0161E00E94E300209739F460E0812F38
:10024000DF91CF911F910C94B500CF3FD10511F4F0
:1002500061E0F5CFE12FF0E0E255FF4FE491E330AC
:1002600031F140F4E130B1F0E230E1F0C038D105D5
:100270007CF7E4CFE73029F1E83059F1E430B1F709
:1002800080918000806280938000D0938B00C09327
:100290008A0004C084B5806884BDC7BDDF91CF915A
:1002A0001F91089584B5806284BDC8BDF7CF809149
:1002B0008000806880938000D0938900C09388007C
:1002C000EDCF8091B00080688093B000C093B30000
:1002D000E5CF8091B00080628093B000C093B400FD
:1002E000DDCF2FB7F8946091A2017091A3018091A6
:1002F000A4019091A5012FBF0895AF92BF92CF9214
:10030000DF92EF92FF920F931F93CF93DF936C01D5
:100310007B018B01040F151FEB015E01AE18BF08B6
:10032000C017D10759F06991D601ED91FC91019068
:10033000F081E02DC6010995892B79F7C501DF9180
:10034000CF911F910F91FF90EF90DF90CF90BF90D2
:10035000AF900895FC01538D448D252F30E0842FFC
:1003600090E0821B930B541710F0CF9608950197DD
:100370000895FC01918D828D981761F0A28DAE0FCA
:10038000BF2FB11D5D968C91928D9F5F9F73928F51
:1003900090E008958FEF9FEF08950F931F930E94B1
:1003A00071016093AE017093AF018093B00190939F
:1003B000B10186EA91E00E94B90197FF1DC00E9439
:1003C00071010091AE011091AF012091B001309107
:1003D000B101601B710B820B930B0091AA0110916C
:1003E000AB012091AC013091AD016017710782071C
:1003F0009307F8F28FEF9FEF1F910F910895FC0183
:10040000918D828D981731F0828DE80FF11D858DC9
:1004100090E008958FEF9FEF0895FC01918D228D5C
:10042000892F90E0805C9F4F821B91098F739927E1
:10043000089586EA91E00E940D0221E0892B09F4DB
:1004400020E0822F089580E090E0892B29F00E941F
:10045000190281110C9400000895FC01A48DA80FCD
:10046000B92FB11DA35ABF4F2C91848D90E00196F6
:100470008F739927848FA689B7892C93A089B18916
:100480008C91837080648C93938D848D981306C0B7
:100490000288F389E02D80818F7D80830895EF921B
:1004A000FF920F931F93CF93DF93EC0181E0888F2E
:1004B0009B8D8C8D98131AC0E889F989808185FFFE
:1004C00015C09FB7F894EE89FF896083E889F989A0
:1004D00080818370806480839FBF81E090E0DF91A2
:1004E000CF911F910F91FF90EF900895F62E0B8DF5
:1004F00010E00F5F1F4F0F731127E02E8C8D8E11B0
:100500000CC00FB607FCFACFE889F989808185FF16
:10051000F5CFCE010E942D02F1CFEB8DEC0FFD2F18
:10052000F11DE35AFF4FF0829FB7F8940B8FEA89D1
:10053000FB8980818062CFCFCF93DF93EC01888DE0
:100540008823B9F0AA89BB89E889F9898C9185FD4E
:1005500003C0808186FD0DC00FB607FCF7CF8C91DC
:1005600085FFF2CF808185FFEDCFCE010E942D0265
:10057000E9CFDF91CF910895CF93C62F8E5080643D
:1005800080937C0080917A00806480937A008091CF
:100590007A0086FDFCCFA0917800B09179002FEF12
:1005A00030E00E947B092FEF33E040E050E00E94F2
:1005B000F408B9018C2FCF910C9414014F925F92E3
:1005C0006F927F928F929F92AF92BF92CF92DF9263
:1005D000EF920F931F93CF93DF93DC016B014A01DE
:1005E0005901E801FC01E255FF4F8491FD01E656F7
:1005F000FF4F1491FD01EA57FF4F0491002309F4C6
:1006000051C081110E948C00E02FF0E0EE0FFF1F1F
:10061000E859FF4FA591B491EC911E2391E080E041
:1006200009F490E0092F182FF6018081918180173D
:10063000910739F00E947101F40160837183828314
:1006400093830E947101F401408051806280738025
:100650006419750986099709633371058105910548
:1006600070F00115110559F4F501808181111DC04B
:1006700081E08083188260E08E2D0E94B500F60133
:1006800011830083DF91CF911F910F91EF90DF9045
:10069000CF90BF90AF909F908F907F906F905F9022
:1006A0004F90089510E000E0BFCF688181E0682797
:1006B0006883E2CFFC0180819181009711F00C9456
:1006C000AC0860E070E0CB010895FB0144815581E6
:1006D000FC01248135812417350778F080819181D0
:1006E000009759F0FB01608171816115710529F056
:1006F0000E94830B21E0892B09F020E0822F0895CE
:100700000F931F93CF93DF93EC018881998100971A
:1007100059F02A813B812617370730F081E0DF91BD
:10072000CF911F910F9108958B016F5F7F4F0E94B2
:10073000AD0A009759F0998388831B830A832C8123
:100740003D81232B59F7FC011082E8CF80E0E7CFF1
:10075000CF93DF93EC0188819981009711F00E947B
:10076000240A198218821D821C821B821A82DF9140
:10077000CF910895EF92FF920F931F93CF93DF9342
:10078000EC017B01198218821B821A821D821C8255
:10079000FB0101900020E9F731978F01061B170B31
:1007A000B8010E948003811109C0CE01DF91CF9171
:1007B0001F910F91FF90EF900C94A8031D830C8361
:1007C000B70188819981DF91CF911F910F91FF909F
:1007D000EF900C947C0B9F92AF92BF92CF92DF92DE
:1007E000EF92FF920F931F93CF93DF937C016B01E6
:1007F0005A0189012417350720F48B2D5901042F44
:10080000182F6EE771E0C7010E94BA03D601149653
:10081000CD91DC91AC16BD0650F50C171D0708F400
:10082000E801D601ED91FC911197EC0FFD1F90802E
:1008300010820D911C910A0D1B1D0115110571F0FF
:10084000F80101900020E9F731975F01A01AB10A81
:10085000B501C7010E948003811116C0C7010E9423
:10086000A803D6018D919C91C80FD91F9882C7010A
:10087000DF91CF911F910F91FF90EF90DF90CF907C
:10088000BF90AF909F900895F701B582A482B80100
:10089000808191810E947C0BE4CFFC018081918159
:1008A000009711F00C94240A08951F920F920FB62E
:1008B0000F9211242F933F938F939F93AF93BF93E6
:1008C0008091A2019091A301A091A401B091A501F2
:1008D0003091A10123E0230F2D3758F50196A11D7A
:1008E000B11D2093A1018093A2019093A301A09335
:1008F000A401B093A50180919D0190919E01A091CA
:100900009F01B091A0010196A11DB11D80939D0191
:1009100090939E01A0939F01B093A001BF91AF91CE
:100920009F918F913F912F910F900FBE0F901F902D
:10093000189526E8230F0296A11DB11DD2CF1F9254
:100940000F920FB60F9211242F933F934F935F9303
:100950006F937F938F939F93AF93BF93EF93FF9387
:1009600086EA91E00E942D02FF91EF91BF91AF9135
:100970009F918F917F916F915F914F913F912F91B7
:100980000F900FBE0F901F9018951F920F920FB6E9
:100990000F9211242F938F939F93EF93FF93E091E6
:1009A000B601F091B7018081E091BC01F091BD01E9
:1009B00082FD1BC090818091BF018F5F8F7320915A
:1009C000C001821741F0E091BF01F0E0EA55FE4F0F
:1009D000958F8093BF01FF91EF919F918F912F9100
:1009E0000F900FBE0F901F9018958081F4CFCF937A
:1009F000DF93CDB7DEB72C970FB6F894DEBF0FBEEE
:100A0000CDBF789484B5826084BD84B5816084BD97
:100A100085B5826085BD85B5816085BD80916E009C
:100A2000816080936E0010928100809181008260CD
:100A3000809381008091810081608093810080910A
:100A400080008160809380008091B10084608093F9
:100A5000B1008091B00081608093B00080917A00F5
:100A6000846080937A0080917A00826080937A001B
:100A700080917A00816080937A0080917A0080680A
:100A800080937A001092C10061E08DE00E94E30043
:100A900061E08CE00E94E30061E08FE00E94E300EF
:100AA00061E08BE00E94E30061E08AE00E94E300E5
:100AB00061E089E00E94E30062E088E00E94E300D8
:100AC00062E087E00E94E30062E086E00E94E300CB
:100AD000609195018DE00E94B500609191018CE0DC
:100AE0000E94B50060918D018FE00E94B500E091F9
:100AF000B601F091B70182E08083E091B201F091FC
:100B0000B3011082E091B401F091B5018FEC8083C4
:100B10001092BE01E091BA01F091BB0186E08083A2
:100B2000E091B801F091B901808180618083E0910A
:100B3000B801F091B901808188608083E091B801AB
:100B4000F091B901808180688083E091B801F091D3
:100B5000B90180818F7D8083CC24C3943AE0432EF9
:100B6000512C612C712C40E0242E40E0342EDD24E9
:100B7000D39486EA91E00E940D02181619060CF033
:100B8000A3C06EE771E0CE0107960E94BA030E94EF
:100B9000CD0197FD1EC08A309105D9F089831A8254
:100BA0000B851C850F5F1F4FB801CE0107960E9471
:100BB0008003882361F32F8138858B859C85BE0156
:100BC0006F5F7F4F820F931F0E947C0B1C870B87E8
:100BD000DECFAF80B884A114B10439F00B851C8539
:100BE00075010115110509F02BC16FE171E0CE010E
:100BF00001960E94BA03BE016F5F7F4FCE01079638
:100C00000E946503182FCE0101960E944D04112306
:100C100009F459C12B853C854FE050E0BE01695F66
:100C20007F4FCE0101960E94EB03CE0101960E94F8
:100C30005A038B01CE0101960E944D04013011052B
:100C400009F034C1D092970169E671E0CE010196B6
:100C50000E94BA03EF80F884E114F10409F43BC266
:100C60000B851C8501151105B9F08D819E81080F3A
:100C7000191FB801CE0101960E948003882309F450
:100C80002AC229813A818D819E81B701820F931FEB
:100C90000E947C0B1E830D834D815E8169817A8168
:100CA00086EA91E00E947D0142E050E06CE771E04D
:100CB00086EA91E00E947D01CE0101960E944D04DA
:100CC000CE0107960E944D040E9471010091990186
:100CD00010919A0120919B0130919C014B015C0184
:100CE000801A910AA20AB30A95018401003D1740B7
:100CF0002105310508F444C06093990170939A016D
:100D000080939B0190939C0180919801811110C068
:100D10008091970181110CC080919601811108C0CA
:100D2000609195016C25609395018DE00E94B5005E
:100D300080919401811110C08091930181110CC0A8
:100D400080919201811108C0609191016C2560939E
:100D500091018CE00E94B50080919001811110C03A
:100D600080918F0181110CC080918E0181110DC085
:100D700060918D016C2560938D018FE00E94B5001C
:100D800080918E01882309F4ABC12091060130E0E7
:100D9000AFEFB0E00E946C09A30192010E94F40839
:100DA000B9018FE00E9414016BE070E080E190E0F7
:100DB0000E94BC026AE070E081E190E00E94BC0207
:100DC00069E070E082E190E00E94BC028DE0E82ED4
:100DD000F12C05E911E028E931E048E851E064E050
:100DE00071E088E090E00E94DE029CE0E92EF12CA8
:100DF00001E911E024E931E044E851E062E071E00A
:100E000087E090E00E94DE022FE0E22EF12C0DE858
:100E100011E020E931E040E851E060E071E086E077
:100E200090E00E94DE022114310409F4A2CE0E9457
:100E30001902882309F49DCE0E9400009ACE740105
:100E400047014FEF841A940AF7018081082E000CA5
:100E5000990B0E94E808892B91F7015011090A0D9E
:100E60001B1DF8018081082E000C990B0E94E808D8
:100E7000892B31F00E151F0518F001501109F1CF23
:100E8000A8014F5F5F4F4E195F095C874B87AE1417
:100E9000BF0420F4B701C5010E946A0BEF81F885F9
:100EA0008B859C85E80FF91F10829FCE02301105BB
:100EB00019F4D0929301C8CE0330110509F0C4CEC5
:100EC000D0928F01C1CE6EE271E0CE0101960E94F8
:100ED000BA03BE016F5F7F4FCE0107960E94650384
:100EE000182FCE0101960E944D042B853C851123BD
:100EF00029F14EE050E0BE01695F7F4FCE010196BF
:100F00000E94EB03CE0101960E945A038B01CE0191
:100F100001960E944D040130110519F410929701B9
:100F200093CE0230110519F4109293018DCE033047
:100F3000110509F089CE10928F0186CE232BB1F0D6
:100F40000F8118856CE371E0C8010E94730B892B37
:100F500019F4D0928C0178CE68E471E0C8010E9447
:100F6000730B892B19F410928C016ECE63E571E03E
:100F7000CE0101960E94BA03BE016F5F7F4FCE0182
:100F800007960E946503182FCE0101960E944D041A
:100F9000112339F12B853C8547E050E0BE01695FA4
:100FA0007F4FCE0101960E94EB03CE0101960E9475
:100FB0005A038B01CE0101960E944D0401301105A8
:100FC00019F4D092960140CE0230110519F4D09256
:100FD00092013ACE0330110509F036CED0928E013F
:100FE00033CE6AE571E0CE0101960E94BA03BE01DC
:100FF0006F5F7F4FCE0107960E946503182FCE01C9
:1010000001960E944D04112339F12B853C8546E061
:1010100050E0BE01695F7F4FCE0101960E94EB0355
:10102000CE0101960E945A038B01CE0101960E94C7
:101030004D040130110519F41092960105CE0230CD
:10104000110519F410929201FFCD0330110509F03A
:10105000FBCD10928E01F8CD60E671E0CE010196D5
:101060000E94BA03BE016F5F7F4FCE0107960E94B8
:101070006503182FCE0101960E944D04112309F437
:10108000E3CD2B853C8549E050E0BE01695F7F4F91
:10109000CE0101960E94EB03CE0101960E945A03F5
:1010A0004B01CE0101960E944D04FBE08F16910486
:1010B00048F4D0928E0181E0892809F480E0809381
:1010C0000601C2CD8920809409F0BECD10928E0118
:1010D000D0920601B9CDCE0101960E94A803DCCDC5
:1010E00080919001811160CE80918C0181115CCE44
:1010F0006FE070E08EE090E00E94BC0255CEE6EA20
:10110000F1E01382128288EE93E0A0E0B0E08483E5
:101110009583A683B78381E191E09183808385ECF9
:1011200090E09587848784EC90E09787868780ECB1
:1011300090E0918B808B81EC90E0938B828B82ECA2
:1011400090E0958B848B86EC90E0978B868B118E4C
:10115000128E138E148E08951F93FC0199278827F1
:10116000BC01E89411911032E9F3193010F01E30EF
:10117000C8F31B3251F01D3249F4689406C00E9436
:10118000D308610F711D811D911D119110531A30EB
:10119000B0F33EF490958095709561957F4F8F4F99
:1011A0009F4F1F910895592F482F372F262F660FD5
:1011B000771F881F991F660F771F881F991F620F5F
:1011C000731F841F951F660F771F881F991F08952F
:1011D00091110C94F108803219F089508550C8F7AC
:1011E0000895992788270895052E97FB1EF40094EB
:1011F0000E940B0957FD07D00E944A0907FC03D043
:101200004EF40C940B0950954095309521953F4F25
:101210004F4F5F4F089590958095709561957F4FE2
:101220008F4F9F4F08952F923F924F925F926F92F0
:101230007F928F929F92AF92BF92CF92DF92EF9266
:10124000FF920F931F93CF93DF93CDB7DEB7CA1BE7
:10125000DB0B0FB6F894DEBF0FBECDBF09942A8812
:10126000398848885F846E847D848C849B84AA84BA
:10127000B984C884DF80EE80FD800C811B81AA8147
:10128000B981CE0FD11D0FB6F894DEBF0FBECDBF12
:10129000ED010895A1E21A2EAA1BBB1BFD010DC092
:1012A000AA1FBB1FEE1FFF1FA217B307E407F50716
:1012B00020F0A21BB30BE40BF50B661F771F881FF2
:1012C000991F1A9469F760957095809590959B0188
:1012D000AC01BD01CF010895A29FB001B39FC00131
:1012E000A39F700D811D1124911DB29F700D811D52
:1012F0001124911D08950E946C09B7FF0895821B67
:10130000930B0895EE0FFF1F0590F491E02D0994C3
:101310000F931F93CF93DF938230910510F482E0F7
:1013200090E0E0914502F091460230E020E0B0E02C
:10133000A0E0309799F42115310509F44AC0281B23
:10134000390B24303105D8F58A819B8161157105EF
:1013500089F1FB0193838283FE0111C04081518199
:101360000281138148175907E0F04817590799F48B
:10137000109761F012960C93129713961C93329665
:10138000CF01DF91CF911F910F91089500934502F6
:1013900010934602F4CF2115310551F0421753073F
:1013A00038F0A901DB019A01BD01DF01F801C1CFCD
:1013B000EF01F9CF9093460280934502CDCFFE0115
:1013C000E20FF31F819391932250310939832883CF
:1013D000D7CF2091430230914402232B41F4209136
:1013E000090130910A013093440220934302209175
:1013F0000701309108012115310541F42DB73EB7A1
:1014000040910B0150910C01241B350BE0914302DC
:10141000F0914402E217F307A0F42E1B3F0B2817AC
:10142000390778F0AC014E5F5F4F2417350748F05D
:101430004E0F5F1F50934402409343028193919358
:101440009FCFF0E0E0E09CCFCF93DF930097E9F0EF
:10145000FC01329713821282A0914502B09146029C
:10146000ED0130E020E01097A1F420813181820F5E
:10147000931F20914302309144022817390709F045
:1014800061C0F0934402E0934302DF91CF9108954D
:10149000EA01CE17DF07E8F54A815B819E0141151D
:1014A0005105B1F7E901FB83EA8349915991C40FD2
:1014B000D51FEC17FD0761F4808191810296840F9E
:1014C000951FE90199838883828193819B838A8315
:1014D000F0E0E0E012968D919C9113970097B9F59A
:1014E0002D913C911197CD010296820F931F20916F
:1014F0004302309144022817390739F6309751F5E5
:101500001092460210924502B0934402A093430207
:10151000BCCFD383C28340815181840F951FC817EC
:10152000D90761F44E5F5F4F88819981480F591F39
:10153000518340838A819B81938382832115310566
:1015400009F0B0CFF0934602E09345029ECFFD0133
:10155000DC01C0CF13821282D7CFB0E0A0E0E3EB72
:10156000FAE00C9415098C01009751F4CB010E940C
:1015700088098C01C801CDB7DEB7E0E10C943109D0
:10158000FC01E60FF71F9C0122503109E217F30717
:1015900008F49DC0D901CD91DC911197C617D707EA
:1015A00098F0C530D10530F3CE0104978617970720
:1015B00008F3C61BD70B2297C193D1936D937C93ED
:1015C000CF010E94240AD6CF5B01AC1ABD0A4C01A0
:1015D0008C0E9D1EA0914502B0914602512C412CCB
:1015E000F12CE12C109731F5809143029091440247
:1015F0008815990509F05CC04616570608F058C0D2
:101600008091070190910801009741F48DB79EB732
:1016100040910B0150910C01841B950BE817F907C1
:1016200008F055C0F0934402E0934302F90171833E
:101630006083A0CF8D919C91119712966C90129718
:1016400013967C901397A815B90559F56C0142E0E3
:10165000C40ED11CCA14DB0420F1AC014A195B0989
:10166000DA011296159780F062827382518340836B
:10167000D9016D937C93E114F10471F0D7011396B5
:10168000FC93EE93129776CF22968C0F9D1FF90153
:1016900091838083F301EFCFF0934602E0934502FC
:1016A00069CF4816590608F42C017D01D3019ACF61
:1016B000CB010E9488097C01009749F0AE01B80176
:1016C0000E946A0BC8010E94240A870153CF10E0D0
:1016D00000E050CFFB01DC0102C001900D924150AF
:1016E0005040D8F70895FB01DC018D9101908019DD
:1016F0000110D9F3990B0895FB01DC0101900D92C3
:101700000020E1F70895FB01DC014150504030F02A
:101710008D910190801919F40020B9F7881B990B5D
:101720000895F894FFCF0100010001000100004777
:10173000028000000000004F027D01AA019C020D02
:1017400002B901FF0164697361626C65206275749E
:10175000746F6E00656E61626C6520627574746F83
:101760006E0064697361626C6520706F7400656EF1
:1017700061626C6520706F74004C65644F66660032
:101780004C65644F6E004C6564506F776572004322
:101790006F6D6D616E642065786563757465643A1C
:0617A00020000D0A00000C
:107E0000112484B714BE81FFF0D085E080938100F7
:107E100082E08093C00088E18093C10086E0809377
:107E2000C20080E18093C4008EE0C9D0259A86E02C
:107E300020E33CEF91E0309385002093840096BBD3
:107E4000B09BFECF1D9AA8958150A9F7CC24DD24C4
:107E500088248394B5E0AB2EA1E19A2EF3E0BF2EE7
:107E6000A2D0813461F49FD0082FAFD0023811F036
:107E7000013811F484E001C083E08DD089C08234E0
:107E800011F484E103C0853419F485E0A6D080C0E4
:107E9000853579F488D0E82EFF2485D0082F10E0AE
:107EA000102F00270E291F29000F111F8ED06801E7
:107EB0006FC0863521F484E090D080E0DECF843638
:107EC00009F040C070D06FD0082F6DD080E0C81688
:107ED00080E7D80618F4F601B7BEE895C0E0D1E017
:107EE00062D089930C17E1F7F0E0CF16F0E7DF06D8
:107EF00018F0F601B7BEE89568D007B600FCFDCFD4
:107F0000A601A0E0B1E02C9130E011968C91119780
:107F100090E0982F8827822B932B1296FA010C0160
:107F200087BEE89511244E5F5F4FF1E0A038BF0790
:107F300051F7F601A7BEE89507B600FCFDCF97BE46
:107F4000E89526C08437B1F42ED02DD0F82E2BD052
:107F50003CD0F601EF2C8F010F5F1F4F84911BD097
:107F6000EA94F801C1F70894C11CD11CFA94CF0C13
:107F7000D11C0EC0853739F428D08EE10CD085E9AC
:107F80000AD08FE07ACF813511F488E018D01DD067
:107F900080E101D065CF982F8091C00085FFFCCF94
:107FA0009093C60008958091C00087FFFCCF809118
:107FB000C00084FD01C0A8958091C6000895E0E648
:107FC000F0E098E1908380830895EDDF803219F02E
:107FD00088E0F5DFFFCF84E1DECF1F93182FE3DFCA
:107FE0001150E9F7F2DF1F91089580E0E8DFEE27F6
:047FF000FF270994CA
:027FFE00040479
:00000001FF
