:020000040000FA
:100000000C9462000C94C8040C94A1040C948A0013
:100010000C948A000C948A000C948A000C948A0038
:100020000C948A000C948A000C948A000C948A0028
:100030000C948A000C948A000C948A000C948A0018
:100040000C9457040C948A000C9415050C94EF043E
:100050000C948A000C948A000C948A000C948A00F8
:100060000C948A000C948A000000000023002600F3
:10007000290000000000240027002A0000000000E2
:10008000250028002B0004040404040404040202D4
:100090000202020203030303030301020408102007
:1000A0004080010204081020010204081020000012
:1000B0000008000201000003040700000000000027
:1000C0000000E00811241FBECFEFD8E0DEBFCDBF97
:1000D00011E0A0E0B1E0E8EEF7E102C005900D927A
:1000E000A438B107D9F722E0A4E8B1E001C01D921D
:1000F000AB34B207E1F710E0C2E6D0E004C02197CC
:10010000FE010E94E309C136D107C9F70E944705E5
:100110000C94F20B0C940000833081F028F48130B1
:1001200099F08230A9F008958730A9F08830C9F09D
:100130008430B1F4809180008F7D03C08091800075
:100140008F7780938000089584B58F7784BD08955C
:1001500084B58F7DFBCF8091B0008F778093B00006
:1001600008958091B0008F7DF9CF1F93CF93DF93D7
:10017000282F30E0F901E255FF4F8491F901E6564E
:10018000FF4FD491F901EA57FF4FC491CC23A9F056
:10019000162F81110E948C00EC2FF0E0EE0FFF1F54
:1001A000E458FF4FA591B4918FB7F894EC911111D9
:1001B00008C0D095DE23DC938FBFDF91CF911F91D4
:1001C0000895DE2BF8CFCF93DF9390E0FC01E65645
:1001D000FF4F24918A579F4FFC0184918823D1F0CF
:1001E00090E0880F991FFC01EE58FF4FA591B49144
:1001F000FC01E458FF4FC591D491623071F49FB770
:10020000F8943C91822F809583238C93E8812E2B48
:1002100028839FBFDF91CF9108958FB7F894EC9119
:100220002E2B2C938FBFF6CF1F93CF93DF93182FD6
:10023000EB0161E00E94E300209739F460E0812F38
:10024000DF91CF911F910C94B500CF3FD10511F4F0
:1002500061E0F5CFE12FF0E0E255FF4FE491E330AC
:1002600031F140F4E130B1F0E230E1F0C038D105D5
:100270007CF7E4CFE73029F1E83059F1E430B1F709
:1002800080918000806280938000D0938B00C09327
:100290008A0004C084B5806884BDC7BDDF91CF915A
:1002A0001F91089584B5806284BDC8BDF7CF809149
:1002B0008000806880938000D0938900C09388007C
:1002C000EDCF8091B00080688093B000C093B30000
:1002D000E5CF8091B00080628093B000C093B400FD
:1002E000DDCF2FB7F8946091A6017091A70180919E
:1002F000A8019091A9012FBF089508950895AF9284
:10030000BF92CF92DF92EF92FF920F931F93CF9302
:10031000DF936C017B018B01040F151FEB015E0164
:10032000AE18BF08C017D10759F06991D601ED91F9
:10033000FC910190F081E02DC6010995892B79F798
:10034000C501DF91CF911F910F91FF90EF90DF904A
:10035000CF90BF90AF900895FC01538D448D252F11
:1003600030E0842F90E0821B930B541710F0CF964F
:10037000089501970895FC01918D828D981761F081
:10038000A28DAE0FBF2FB11D5D968C91928D9F5F98
:100390009F73928F90E008958FEF9FEF08950F93D2
:1003A0001F930E9471016093B2017093B301809317
:1003B000B4019093B5018AEA91E00E94BB0197FFD6
:1003C0001DC00E9471010091B2011091B3012091F2
:1003D000B4013091B501601B710B820B930B00913E
:1003E000AE011091AF012091B0013091B1016017C1
:1003F000710782079307F8F28FEF9FEF1F910F911C
:100400000895FC01918D828D981731F0828DE80F4F
:10041000F11D858D90E008958FEF9FEF0895FC0109
:10042000918D228D892F90E0805C9F4F821B9109D6
:100430008F73992708958AEA91E00E940F0221E0C4
:10044000892B09F420E0822F089580E090E0892B29
:1004500029F00E941B0281110C9400000895FC01F8
:10046000A48DA80FB92FB11DA35ABF4F2C91848D15
:1004700090E001968F739927848FA689B7892C9372
:10048000A089B1898C91837080648C93938D848DC5
:10049000981306C00288F389E02D80818F7D8083C8
:1004A0000895EF92FF920F931F93CF93DF93EC0188
:1004B00081E0888F9B8D8C8D98131AC0E889F9890B
:1004C000808185FF15C09FB7F894EE89FF8960830E
:1004D000E889F98980818370806480839FBF81E08F
:1004E00090E0DF91CF911F910F91FF90EF900895D1
:1004F000F62E0B8D10E00F5F1F4F0F731127E02EAC
:100500008C8D8E110CC00FB607FCFACFE889F989E3
:10051000808185FFF5CFCE010E942F02F1CFEB8DB8
:10052000EC0FFD2FF11DE35AFF4FF0829FB7F894B7
:100530000B8FEA89FB8980818062CFCFCF93DF93D5
:10054000EC01888D8823B9F0AA89BB89E889F989EB
:100550008C9185FD03C0808186FD0DC00FB607FC20
:10056000F7CF8C9185FFF2CF808185FFEDCFCE0153
:100570000E942F02E9CFDF91CF910895CF93C62F2C
:100580008E50806480937C0080917A008064809398
:100590007A0080917A0086FDFCCFA0917800B0911E
:1005A00079002FEF30E00E94DC092FEF33E040E0CC
:1005B00050E00E945509B9018C2FCF910C94140181
:1005C0004F925F926F927F928F929F92AF92BF9263
:1005D000CF92DF92EF920F931F93CF93DF93DC01C3
:1005E0006B014A015901E801FC01E255FF4F84917A
:1005F000FD01E656FF4F1491FD01EA57FF4F0491AC
:10060000002309F451C081110E948C00E02FF0E01A
:10061000EE0FFF1FE859FF4FA591B491EC911E23F7
:1006200091E080E009F490E0092F182FF601808115
:1006300091818017910739F00E947101F401608364
:100640007183828393830E947101F4014080518001
:10065000628073806419750986099709633371058F
:100660008105910570F00115110559F4F50180819E
:1006700081111DC081E08083188260E08E2D0E9470
:10068000B500F60111830083DF91CF911F910F9187
:10069000EF90DF90CF90BF90AF909F908F907F9022
:1006A0006F905F904F90089510E000E0BFCF688199
:1006B00081E068276883E2CFFC0180819181009707
:1006C00011F00C940D0960E070E0CB010895FB017E
:1006D00044815581FC01248135812417350778F048
:1006E00080819181009759F0FB01608171816115D2
:1006F000710529F00E94E40B21E0892B09F020E02C
:10070000822F08950F931F93CF93DF93EC0188817D
:100710009981009759F02A813B812617370730F0DD
:1007200081E0DF91CF911F910F9108958B016F5F51
:100730007F4F0E940E0B009759F0998388831B838B
:100740000A832C813D81232B59F7FC011082E8CFCD
:1007500080E0E7CFCF93DF93EC0188819981009708
:1007600011F00E94850A198218821D821C821B8248
:100770001A82DF91CF910895EF92FF920F931F930A
:10078000CF93DF93EC017B01198218821B821A82BE
:100790001D821C82FB0101900020E9F731978F0137
:1007A000061B170BB8010E948203811109C0CE01FC
:1007B000DF91CF911F910F91FF90EF900C94AA03BE
:1007C0001D830C83B70188819981DF91CF911F919F
:1007D0000F91FF90EF900C94DD0B9F92AF92BF9220
:1007E000CF92DF92EF92FF920F931F93CF93DF93FD
:1007F0007C016B015A0189012417350720F48B2DE8
:100800005901042F182F62E871E0C7010E94BC0350
:10081000D6011496CD91DC91AC16BD0650F50C179F
:100820001D0708F4E801D601ED91FC911197EC0F3A
:10083000FD1F908010820D911C910A0D1B1D01154A
:10084000110571F0F80101900020E9F731975F017F
:10085000A01AB10AB501C7010E948203811116C016
:10086000C7010E94AA03D6018D919C91C80FD91F80
:100870009882C701DF91CF911F910F91FF90EF9068
:10088000DF90CF90BF90AF909F900895F701B58211
:10089000A482B801808191810E94DD0BE4CFFC012C
:1008A00080819181009711F00C94850A08951F9220
:1008B0000F920FB60F9211242F933F938F939F9314
:1008C000AF93BF938091A6019091A701A091A80139
:1008D000B091A9013091A50123E0230F2D3758F5E0
:1008E0000196A11DB11D2093A5018093A6019093AF
:1008F000A701A093A801B093A9018091A1019091B3
:10090000A201A091A301B091A4010196A11DB11D66
:100910008093A1019093A201A093A301B093A4019D
:10092000BF91AF919F918F913F912F910F900FBEEB
:100930000F901F90189526E8230F0296A11DB11D58
:10094000D2CF1F920F920FB60F9211242F933F9385
:100950004F935F936F937F938F939F93AF93BF93C7
:10096000EF93FF93E0910201F09103010995FF914C
:10097000EF91BF91AF919F918F917F916F915F9117
:100980004F913F912F910F900FBE0F901F90189590
:100990001F920F920FB60F9211242F933F934F93F4
:1009A0005F936F937F938F939F93AF93BF93EF93D7
:1009B000FF93E0910001F09101010995FF91EF9102
:1009C000BF91AF919F918F917F916F915F914F9167
:1009D0003F912F910F900FBE0F901F9018951F926F
:1009E0000F920FB60F9211242F933F934F935F9363
:1009F0006F937F938F939F93AF93BF93EF93FF93E7
:100A00008AEA91E00E942F02FF91EF91BF91AF918E
:100A10009F918F917F916F915F914F913F912F9116
:100A20000F900FBE0F901F9018951F920F920FB648
:100A30000F9211242F938F939F93EF93FF93E09145
:100A4000BA01F091BB018081E091C001F091C10138
:100A500082FD1BC090818091C3018F5F8F732091B5
:100A6000C401821741F0E091C301F0E0E655FE4F6A
:100A7000958F8093C301FF91EF919F918F912F915B
:100A80000F900FBE0F901F9018958081F4CFCF93D9
:100A9000DF93CDB7DEB72C970FB6F894DEBF0FBE4D
:100AA000CDBF789484B5826084BD84B5816084BDF7
:100AB00085B5826085BD85B5816085BD80916E00FC
:100AC000816080936E00109281008091810082602D
:100AD000809381008091810081608093810080916A
:100AE00080008160809380008091B1008460809359
:100AF000B1008091B00081608093B00080917A0055
:100B0000846080937A0080917A00826080937A007A
:100B100080917A00816080937A0080917A00806869
:100B200080937A001092C10061E08DE00E94E300A2
:100B300061E08CE00E94E30061E08FE00E94E3004E
:100B400061E08BE00E94E30061E08AE00E94E30044
:100B500061E089E00E94E30062E088E00E94E30037
:100B600062E087E00E94E30062E086E00E94E3002A
:100B700062E082E00E94E3008DE791E09093010142
:100B800080930001809169008C7F8260809369006E
:100B9000E89A609199018DE00E94B50060919501FD
:100BA0008CE00E94B500609191018FE00E94B50039
:100BB000E091BA01F091BB0182E08083E091B6013F
:100BC000F091B7011082E091B801F091B9018FEC7A
:100BD00080831092C201E091BE01F091BF0186E0D6
:100BE0008083E091BC01F091BD01808180618083B0
:100BF000E091BC01F091BD01808188608083E0912B
:100C0000BC01F091BD01808180688083E091BC01CE
:100C1000F091BD0180818F7D8083CC24C3943AE024
:100C2000432E512C612C712C40E0242E40E0342EB8
:100C3000DD24D3948AEA91E00E940F021816190667
:100C40000CF0A3C062E871E0CE0107960E94BC03DD
:100C50000E94CF0197FD1EC08A309105D9F089838B
:100C60001A820B851C850F5F1F4FB801CE010796B6
:100C70000E948203882361F32F8138858B859C85B0
:100C8000BE016F5F7F4F820F931F0E94DD0B1C8799
:100C90000B87DECFAF80B884A114B10439F00B8587
:100CA0001C8575010115110509F02BC163E271E086
:100CB000CE0101960E94BC03BE016F5F7F4FCE0143
:100CC00007960E946703182FCE0101960E944F04D9
:100CD000112309F459C12B853C854FE050E0BE013A
:100CE000695F7F4FCE0101960E94ED03CE01019610
:100CF0000E945C038B01CE0101960E944F040130DB
:100D0000110509F034C1D0929B016DE671E0CE016E
:100D100001960E94BC03EF80F884E114F10409F409
:100D20003BC20B851C8501151105B9F08D819E8193
:100D3000080F191FB801CE0101960E948203882373
:100D400009F42AC229813A818D819E81B701820FDF
:100D5000931F0E94DD0B1E830D834D815E8169818F
:100D60007A818AEA91E00E947F0142E050E060E8E7
:100D700071E08AEA91E00E947F01CE0101960E9413
:100D80004F04CE0107960E944F040E94710100910A
:100D90009D0110919E0120919F013091A0014B0176
:100DA0005C01801A910AA20AB30A95018401003DF0
:100DB00017402105310508F444C060939D017093EC
:100DC0009E0180939F019093A00180919C018111CD
:100DD00010C080919B0181110CC080919A018111FA
:100DE00008C0609199016C25609399018DE00E9483
:100DF000B50080919801811110C0809197018111F7
:100E00000CC080919601811108C0609195016C25FC
:100E1000609395018CE00E94B5008091940181114E
:100E200010C08091930181110CC0809192018111B9
:100E30000DC0609191016C25609391018FE00E943B
:100E4000B50080919201882309F4ABC120910A0179
:100E500030E0AFEFB0E00E94CD09A30192010E9403
:100E60005509B9018FE00E9414016BE070E080E148
:100E700090E00E94BE026AE070E081E190E00E9492
:100E8000BE0269E070E082E190E00E94BE028DE067
:100E9000E82EF12C09E911E02CE931E04CE851E0B1
:100EA00068E071E088E090E00E94E0029CE0E92EBA
:100EB000F12C05E911E028E931E048E851E066E06D
:100EC00071E087E090E00E94E0022FE0E22EF12C3A
:100ED00001E911E024E931E044E851E064E071E027
:100EE00086E090E00E94E0022114310409F4A2CED1
:100EF0000E941B02882309F49DCE0E9400009ACE16
:100F0000740147014FEF841A940AF7018081082E7B
:100F1000000C990B0E944909892B91F70150110986
:100F20000A0D1B1DF8018081082E000C990B0E94F0
:100F30004909892B31F00E151F0518F001501109D0
:100F4000F1CFA8014F5F5F4F4E195F095C874B8758
:100F5000AE14BF0420F4B701C5010E94CB0BEF8192
:100F6000F8858B859C85E80FF91F10829FCE023093
:100F7000110519F4D0929701C8CE0330110509F07C
:100F8000C4CED0929301C1CE62E371E0CE0101964E
:100F90000E94BC03BE016F5F7F4FCE0107960E9487
:100FA0006703182FCE0101960E944F042B853C85C4
:100FB000112329F14EE050E0BE01695F7F4FCE0161
:100FC00001960E94ED03CE0101960E945C038B0105
:100FD000CE0101960E944F040130110519F41092C0
:100FE0009B0193CE0230110519F4109297018DCE1A
:100FF0000330110509F089CE1092930186CE232B80
:10100000B1F00F81188560E471E0C8010E94D40B33
:10101000892B19F4D092900178CE6CE471E0C8016C
:101020000E94D40B892B19F4109290016ECE67E5C3
:1010300071E0CE0101960E94BC03BE016F5F7F4F3D
:10104000CE0107960E946703182FCE0101960E94D9
:101050004F04112339F12B853C8547E050E0BE0158
:10106000695F7F4FCE0101960E94ED03CE0101968C
:101070000E945C038B01CE0101960E944F04013057
:10108000110519F4D0929A0140CE0230110519F4DD
:10109000D09296013ACE0330110509F036CED092A7
:1010A000920133CE6EE571E0CE0101960E94BC0341
:1010B000BE016F5F7F4FCE0107960E946703182F16
:1010C000CE0101960E944F04112339F12B853C85F6
:1010D00046E050E0BE01695F7F4FCE0101960E945D
:1010E000ED03CE0101960E945C038B01CE010196B7
:1010F0000E944F040130110519F410929A0105CE97
:101100000230110519F410929601FFCD033011053C
:1011100009F0FBCD10929201F8CD64E671E0CE01AA
:1011200001960E94BC03BE016F5F7F4FCE01079600
:101130000E946703182FCE0101960E944F041123CD
:1011400009F4E3CD2B853C8549E050E0BE01695FA1
:101150007F4FCE0101960E94ED03CE0101960E94C1
:101160005C034B01CE0101960E944F04FBE08F16F9
:10117000910448F4D092920181E0892809F480E03A
:1011800080930A01C2CD8920809409F0BECD1092CF
:101190009201D0920A01B9CDCE0101960E94AA0314
:1011A000DCCD80919401811160CE809190018111FC
:1011B0005CCE6FE070E08EE090E00E94BE0255CE03
:1011C000EAEAF1E01382128288EE93E0A0E0B0E058
:1011D00084839583A683B78385E191E0918380839F
:1011E00085EC90E09587848784EC90E097878687EC
:1011F00080EC90E0918B808B81EC90E0938B828BE4
:1012000082EC90E0958B848B86EC90E0978B868BBC
:10121000118E128E138E148E08951F93FC01992740
:101220008827BC01E89411911032E9F3193010F0CD
:101230001E30C8F31B3251F01D3249F4689406C0C9
:101240000E943409610F711D811D911D1191105370
:101250001A30B0F33EF490958095709561957F4F6C
:101260008F4F9F4F1F910895592F482F372F262FAB
:10127000660F771F881F991F660F771F881F991F9A
:10128000620F731F841F951F660F771F881F991F9A
:10129000089591110C945209803219F089508550AB
:1012A000C8F70895992788270895052E97FB1EF4FF
:1012B00000940E946C0957FD07D00E94AB0907FCFF
:1012C00003D04EF40C946C095095409530952195BF
:1012D0003F4F4F4F5F4F0895909580957095619562
:1012E0007F4F8F4F9F4F08952F923F924F925F9263
:1012F0006F927F928F929F92AF92BF92CF92DF9226
:10130000EF92FF920F931F93CF93DF93CDB7DEB78A
:10131000CA1BDB0B0FB6F894DEBF0FBECDBF09941E
:101320002A88398848885F846E847D848C849B8475
:10133000AA84B984C884DF80EE80FD800C811B8183
:10134000AA81B981CE0FD11D0FB6F894DEBF0FBEB2
:10135000CDBFED010895A1E21A2EAA1BBB1BFD0112
:101360000DC0AA1FBB1FEE1FFF1FA217B307E40784
:10137000F50720F0A21BB30BE40BF50B661F771FDC
:10138000881F991F1A9469F76095709580959095BC
:101390009B01AC01BD01CF010895A29FB001B39F95
:1013A000C001A39F700D811D1124911DB29F700D6E
:1013B000811D1124911D08950E94CD09B7FF089544
:1013C000821B930B0895EE0FFF1F0590F491E02D03
:1013D00009940F931F93CF93DF938230910510F4FC
:1013E00082E090E0E0914902F0914A0230E020E092
:1013F000B0E0A0E0309799F42115310509F44AC016
:10140000281B390B24303105D8F58A819B81611561
:10141000710589F1FB0193838283FE0111C0408134
:1014200051810281138148175907E0F04817590785
:1014300099F4109761F012960C93129713961C93DF
:101440003296CF01DF91CF911F910F9108950093B4
:10145000490210934A02F4CF2115310551F0421789
:10146000530738F0A901DB019A01BD01DF01F80142
:10147000C1CFEF01F9CF90934A0280934902CDCFBB
:10148000FE01E20FF31F81939193225031093983BA
:101490002883D7CF2091470230914802232B41F473
:1014A00020910D0130910E013093480220934702A4
:1014B00020910B0130910C012115310541F42DB71C
:1014C0003EB740910F0150911001241B350BE09164
:1014D0004702F0914802E217F307A0F42E1B3F0BDE
:1014E0002817390778F0AC014E5F5F4F2417350796
:1014F00048F04E0F5F1F509348024093470281937C
:1015000091939FCFF0E0E0E09CCFCF93DF930097E3
:10151000E9F0FC01329713821282A0914902B09146
:101520004A02ED0130E020E01097A1F420813181E2
:10153000820F931F209147023091480228173907E4
:1015400009F061C0F0934802E0934702DF91CF9128
:101550000895EA01CE17DF07E8F54A815B819E0115
:1015600041155105B1F7E901FB83EA83499159918E
:10157000C40FD51FEC17FD0761F48081918102969D
:10158000840F951FE90199838883828193819B83CE
:101590008A83F0E0E0E012968D919C91139700977A
:1015A000B9F52D913C911197CD010296820F931FB1
:1015B00020914702309148022817390739F63097B1
:1015C00051F510924A0210924902B0934802A0933A
:1015D0004702BCCFD383C28340815181840F951FC2
:1015E000C817D90761F44E5F5F4F88819981480F12
:1015F000591F518340838A819B8193838283211564
:10160000310509F0B0CFF0934A02E09349029ECF32
:10161000FD01DC01C0CF13821282D7CFB0E0A0E081
:10162000E4E1FBE00C9476098C01009751F4CB01C6
:101630000E94E9098C01C801CDB7DEB7E0E10C9446
:101640009209FC01E60FF71F9C0122503109E217B5
:10165000F30708F49DC0D901CD91DC911197C6170D
:10166000D70798F0C530D10530F3CE01049786171F
:10167000970708F3C61BD70B2297C193D1936D939D
:101680007C93CF010E94850AD6CF5B01AC1ABD0ABC
:101690004C018C0E9D1EA0914902B0914A02512C22
:1016A000412CF12CE12C109731F58091470290915B
:1016B00048028815990509F05CC04616570608F0DF
:1016C00058C080910B0190910C01009741F48DB7A7
:1016D0009EB740910F0150911001841B950BE817A4
:1016E000F90708F055C0F0934802E0934702F9016A
:1016F00071836083A0CF8D919C91119712966C900D
:10170000129713967C901397A815B90559F56C019B
:1017100042E0C40ED11CCA14DB0420F1AC014A190A
:101720005B09DA011296159780F062827382518309
:101730004083D9016D937C93E114F10471F0D701DA
:101740001396FC93EE93129776CF22968C0F9D1FE3
:10175000F90191838083F301EFCFF0934A02E09384
:10176000490269CF4816590608F42C017D01D301BE
:101770009ACFCB010E94E9097C01009749F0AE01A4
:10178000B8010E94CB0BC8010E94850A870153CF84
:1017900010E000E050CFFB01DC0102C001900D928F
:1017A00041505040D8F70895FB01DC018D91019024
:1017B00080190110D9F3990B0895FB01DC01019008
:1017C0000D920020E1F70895FB01DC0141505040EB
:1017D00030F08D910190801919F40020B9F7881B21
:1017E000990B0895F894FFCF7E017E01010001005E
:1017F00001000100004B0280000000000051027F48
:1018000001AC019E020F02BB0101026469736162B7
:101810006C6520627574746F6E00656E61626C65D4
:1018200020627574746F6E0064697361626C652008
:10183000706F7400656E61626C6520706F74004C2F
:1018400065644F6666004C65644F6E004C6564507D
:101850006F77657200436F6D6D616E6420657865AA
:0C18600063757465643A20000D0A0000F6
:107E0000112484B714BE81FFF0D085E080938100F7
:107E100082E08093C00088E18093C10086E0809377
:107E2000C20080E18093C4008EE0C9D0259A86E02C
:107E300020E33CEF91E0309385002093840096BBD3
:107E4000B09BFECF1D9AA8958150A9F7CC24DD24C4
:107E500088248394B5E0AB2EA1E19A2EF3E0BF2EE7
:107E6000A2D0813461F49FD0082FAFD0023811F036
:107E7000013811F484E001C083E08DD089C08234E0
:107E800011F484E103C0853419F485E0A6D080C0E4
:107E9000853579F488D0E82EFF2485D0082F10E0AE
:107EA000102F00270E291F29000F111F8ED06801E7
:107EB0006FC0863521F484E090D080E0DECF843638
:107EC00009F040C070D06FD0082F6DD080E0C81688
:107ED00080E7D80618F4F601B7BEE895C0E0D1E017
:107EE00062D089930C17E1F7F0E0CF16F0E7DF06D8
:107EF00018F0F601B7BEE89568D007B600FCFDCFD4
:107F0000A601A0E0B1E02C9130E011968C91119780
:107F100090E0982F8827822B932B1296FA010C0160
:107F200087BEE89511244E5F5F4FF1E0A038BF0790
:107F300051F7F601A7BEE89507B600FCFDCF97BE46
:107F4000E89526C08437B1F42ED02DD0F82E2BD052
:107F50003CD0F601EF2C8F010F5F1F4F84911BD097
:107F6000EA94F801C1F70894C11CD11CFA94CF0C13
:107F7000D11C0EC0853739F428D08EE10CD085E9AC
:107F80000AD08FE07ACF813511F488E018D01DD067
:107F900080E101D065CF982F8091C00085FFFCCF94
:107FA0009093C60008958091C00087FFFCCF809118
:107FB000C00084FD01C0A8958091C6000895E0E648
:107FC000F0E098E1908380830895EDDF803219F02E
:107FD00088E0F5DFFFCF84E1DECF1F93182FE3DFCA
:107FE0001150E9F7F2DF1F91089580E0E8DFEE27F6
:047FF000FF270994CA
:027FFE00040479
:00000001FF
