:100000000C9462000C948A000C948A000C948A0070
:100010000C948A000C948A000C948A000C948A0038
:100020000C948A000C948A000C948A000C948A0028
:100030000C948A000C948A000C948A000C948A0018
:100040000C9459040C948A000C94C9040C94A304D5
:100050000C948A000C948A000C948A000C948A00F8
:100060000C948A000C948A000000000023002600F3
:10007000290000000000240027002A0000000000E2
:10008000250028002B0004040404040404040202D4
:100090000202020203030303030301020408102007
:1000A0004080010204081020010204081020000012
:1000B0000008000201000003040700000000000027
:1000C00000002B0811241FBECFEFD8E0DEBFCDBF4C
:1000D00011E0A0E0B1E0EEE7F6E102C005900D927C
:1000E000A637B107D9F722E0A6E7B1E001C01D921B
:1000F000AD33B207E1F710E0C2E6D0E004C02197CB
:10010000FE010E942E09C136D107C9F70E94FB04E7
:100110000C943D0B0C940000833081F028F4813066
:1001200099F08230A9F008958730A9F08830C9F09D
:100130008430B1F4809180008F7D03C08091800075
:100140008F7780938000089584B58F7784BD08955C
:1001500084B58F7DFBCF8091B0008F778093B00006
:1001600008958091B0008F7DF9CF1F93CF93DF93D7
:10017000282F30E0F901E255FF4F8491F901E6564E
:10018000FF4FD491F901EA57FF4FC491CC23A9F056
:10019000162F81110E948C00EC2FF0E0EE0FFF1F54
:1001A000E458FF4FA591B4918FB7F894EC911111D9
:1001B00008C0D095DE23DC938FBFDF91CF911F91D4
:1001C0000895DE2BF8CFCF93DF9390E0FC01E65645
:1001D000FF4F24918A579F4FFC0184918823D1F0CF
:1001E00090E0880F991FFC01EE58FF4FA591B49144
:1001F000FC01E458FF4FC591D491623071F49FB770
:10020000F8943C91822F809583238C93E8812E2B48
:1002100028839FBFDF91CF9108958FB7F894EC9119
:100220002E2B2C938FBFF6CF2FB7F89460919801A7
:100230007091990180919A0190919B012FBF08952F
:10024000AF92BF92CF92DF92EF92FF920F931F93E4
:10025000CF93DF936C017B018B01040F151FEB0122
:100260005E01AE18BF08C017D10759F06991D601D9
:10027000ED91FC910190F081E02DC6010995892B4B
:1002800079F7C501DF91CF911F910F91FF90EF900A
:10029000DF90CF90BF90AF900895FC01538D448DB7
:1002A000252F30E0842F90E0821B930B541710F021
:1002B000CF96089501970895FC01918D828D98172E
:1002C00061F0A28DAE0FBF2FB11D5D968C91928D06
:1002D0009F5F9F73928F90E008958FEF9FEF089537
:1002E0000F931F930E9414016093A4017093A501C2
:1002F0008093A6019093A7018CE991E00E945C0194
:1003000097FF1DC00E9414010091A4011091A50146
:100310002091A6013091A701601B710B820B930BFA
:100320000091A0011091A1012091A2013091A3019F
:100330006017710782079307F8F28FEF9FEF1F9105
:100340000F910895FC01918D828D981731F0828D67
:10035000E80FF11D858D90E008958FEF9FEF0895D0
:10036000FC01918D228D892F90E0805C9F4F821B34
:1003700091098F73992708958CE991E00E94B0014B
:1003800021E0892B09F420E0822F089580E090E09D
:10039000892B29F00E94BC0181110C940000089562
:1003A000FC01A48DA80FB92FB11DA35ABF4F2C91EA
:1003B000848D90E001968F739927848FA689B789E1
:1003C0002C93A089B1898C91837080648C93938DD8
:1003D000848D981306C00288F389E02D80818F7D7B
:1003E00080830895EF92FF920F931F93CF93DF9333
:1003F000EC0181E0888F9B8D8C8D98131AC0E88961
:10040000F989808185FF15C09FB7F894EE89FF892F
:100410006083E889F98980818370806480839FBFCD
:1004200081E090E0DF91CF911F910F91FF90EF90CD
:100430000895F62E0B8D10E00F5F1F4F0F731127DD
:10044000E02E8C8D8E110CC00FB607FCFACFE88918
:10045000F989808185FFF5CFCE010E94D001F1CFCF
:10046000EB8DEC0FFD2FF11DE35AFF4FF0829FB78C
:10047000F8940B8FEA89FB8980818062CFCFCF937C
:10048000DF93EC01888D8823B9F0AA89BB89E889BC
:10049000F9898C9185FD03C0808186FD0DC00FB662
:1004A00007FCF7CF8C9185FFF2CF808185FFEDCFE0
:1004B000CE010E94D001E9CFDF91CF910895EF9254
:1004C000FF920F931F93CF93DF938B018E50806425
:1004D00080937C0080917A00806480937A00809180
:1004E0007A0086FDFCCFA0917800B09179002FEFC3
:1004F00030E00E9427092FEF33E040E050E00E94F7
:10050000A008E901790161E0802F0E94E3002097B3
:1005100051F460E0802FDF91CF911F910F91FF90F8
:10052000EF900C94B500CF3FD10511F461E0F2CF0C
:10053000F801E255FF4FE491E33051F148F4E13026
:10054000B9F0E23001F180E8E816F1047CF7E1CF80
:10055000E73041F1E83071F1E430A9F78091800093
:10056000806280938000D0938B00C0938A0004C087
:1005700084B5806884BDC7BDDF91CF911F910F9175
:10058000FF90EF90089584B5806284BDC8BDF4CF1C
:1005900080918000806880938000D0938900C09310
:1005A0008800EACF8091B00080688093B000C0934B
:1005B000B300E2CF8091B00080628093B000C0931E
:1005C000B400DACF4F925F926F927F928F929F9298
:1005D000AF92BF92CF92DF92EF920F931F93CF9380
:1005E000DF93DC016B014A015901E801FC01E2558E
:1005F000FF4F8491FD01E656FF4F1491FD01EA572C
:10060000FF4F0491002309F451C081110E948C0016
:10061000E02FF0E0EE0FFF1FE859FF4FA591B491D6
:10062000EC911E2391E080E009F490E0092F182F4F
:10063000F601808191818017910739F00E941401A1
:10064000F40160837183828393830E941401F40117
:10065000408051806280738064197509860997090A
:10066000633371058105910570F00115110559F489
:10067000F501808181111DC081E08083188260E0D6
:100680008E2D0E94B500F60111830083DF91CF917A
:100690001F910F91EF90DF90CF90BF90AF909F9000
:1006A0008F907F906F905F904F90089510E000E0E2
:1006B000BFCF688181E068276883E2CFFC01808139
:1006C0009181009711F00C94580860E070E0CB0124
:1006D0000895FB0144815581FC0124813581241753
:1006E000350778F080819181009759F0FB01608196
:1006F00071816115710529F00E942F0B21E0892B72
:1007000009F020E0822F08950F931F93CF93DF937A
:10071000EC0188819981009759F02A813B81261745
:10072000370730F081E0DF91CF911F910F9108954D
:100730008B016F5F7F4F0E94590A009759F0998390
:1007400088831B830A832C813D81232B59F7FC016D
:100750001082E8CF80E0E7CFCF93DF93EC01888170
:100760009981009711F00E94D009198218821D8288
:100770001C821B821A82DF91CF910895EF92FF9223
:100780000F931F93CF93DF93EC017B0119821882A3
:100790001B821A821D821C82FB0101900020E9F756
:1007A00031978F01061B170BB8010E94840381113A
:1007B00009C0CE01DF91CF911F910F91FF90EF9073
:1007C0000C94AC031D830C83B70188819981DF9160
:1007D000CF911F910F91FF90EF900C94280B9F9257
:1007E000AF92BF92CF92DF92EF92FF920F931F933F
:1007F000CF93DF937C016B015A01890124173507E0
:1008000020F48B2D5901042F182F64E771E0C701E4
:100810000E94BE03D6011496CD91DC91AC16BD06A4
:1008200050F50C171D0708F4E801D601ED91FC9175
:100830001197EC0FFD1F908010820D911C910A0DF5
:100840001B1D0115110571F0F80101900020E9F759
:1008500031975F01A01AB10AB501C7010E94840354
:10086000811116C0C7010E94AC03D6018D919C91E5
:10087000C80FD91F9882C701DF91CF911F910F91A7
:10088000FF90EF90DF90CF90BF90AF909F90089532
:10089000F701B582A482B801808191810E94280B62
:1008A000E4CFFC0180819181009711F00C94D00974
:1008B00008951F920F920FB60F9211242F933F931A
:1008C0008F939F93AF93BF938091980190919901DB
:1008D000A0919A01B0919B013091970123E0230FE1
:1008E0002D3758F50196A11DB11D209397018093D6
:1008F000980190939901A0939A01B0939B018091E4
:10090000930190919401A0919501B0919601019667
:10091000A11DB11D8093930190939401A093950123
:10092000B0939601BF91AF919F918F913F912F917D
:100930000F900FBE0F901F90189526E8230F029678
:10094000A11DB11DD2CF1F920F920FB60F9211248D
:100950002F933F934F935F936F937F938F939F93C7
:10096000AF93BF93EF93FF938CE991E00E94D00186
:10097000FF91EF91BF91AF919F918F917F916F9177
:100980005F914F913F912F910F900FBE0F901F904D
:1009900018951F920F920FB60F9211242F938F93D9
:1009A0009F93EF93FF93E091AC01F091AD018081B3
:1009B000E091B201F091B30182FD1BC09081809162
:1009C000B5018F5F8F732091B601821741F0E091DE
:1009D000B501F0E0E456FE4F958F8093B501FF918D
:1009E000EF919F918F912F910F900FBE0F901F90BD
:1009F00018958081F4CFCF93DF93CDB7DEB72C97D6
:100A00000FB6F894DEBF0FBECDBF789484B5826078
:100A100084BD84B5816084BD85B5826085BD85B5A2
:100A2000816085BD80916E00816080936E00109220
:100A3000810080918100826080938100809181009B
:100A4000816080938100809180008160809380002C
:100A50008091B10084608093B1008091B00081608A
:100A60008093B00080917A00846080937A008091B6
:100A70007A00826080937A0080917A00816080930E
:100A80007A0080917A00806880937A001092C10089
:100A900061E08DE00E94E30061E08CE00E94E300F1
:100AA00061E08FE00E94E30061E08BE00E94E300E0
:100AB00061E08AE00E94E30061E089E00E94E300D7
:100AC00062E088E00E94E30062E087E00E94E300C9
:100AD00062E086E00E94E30060918B018DE00E945D
:100AE000B500609187018CE00E94B50060918301A0
:100AF0008FE00E94B500E091AC01F091AD0182E081
:100B00008083E091A801F091A9011082E091AA01EF
:100B1000F091AB018FEC80831092B401E091B001B1
:100B2000F091B10186E08083E091AE01F091AF01D8
:100B3000808180618083E091AE01F091AF0180817E
:100B400088608083E091AE01F091AF018081806880
:100B50008083E091AE01F091AF0180818F7D808331
:100B6000CC24C39430E0A32E30E0B32EDD24D39404
:100B70008CE991E00E94B001181619060CF0A3C090
:100B800064E771E0CE0107960E94BE030E947001E7
:100B900097FD1EC08A309105D9F089831A820B8592
:100BA0001C850F5F1F4FB801CE0107960E9484037A
:100BB000882361F32F8138858B859C85BE016F5F0B
:100BC0007F4F820F931F0E94280B1C870B87DECF5D
:100BD0006F8078846114710439F00B851C85730172
:100BE0000115110509F025C16EE171E0CE010196F4
:100BF0000E94BE03BE016F5F7F4FCE0107960E9429
:100C00006903182FCE0101960E945104112309F4A3
:100C100053C12B853C854FE050E0BE01695F7F4F9B
:100C2000CE0101960E94EF03CE0101960E945E0361
:100C30008B01CE0101960E9451040130110509F08B
:100C40002EC1D0928D016FE571E0CE0101960E9418
:100C5000BE03EF80F884E114F10409F4F7C10B85B9
:100C60001C8501151105B9F08D819E81080F191F92
:100C7000B801CE0101960E948403882309F4E6C1DD
:100C800029813A818D819E81B701820F931F0E9435
:100C9000280B1E830D834D815E8169817A818CE9E9
:100CA00091E00E94200142E050E062E771E08CE9AF
:100CB00091E00E942001CE0101960E945104CE01D4
:100CC00007960E9451040E94140100918F01109117
:100CD000900120919101309192013B014C01601AE9
:100CE000710A820A930A94018301003D174021058D
:100CF000310508F444C060938F0170939001809394
:100D000091019093920180918E01811110C0809188
:100D10008D0181110CC080918C01811108C06091FE
:100D20008B016C2560938B018DE00E94B500809152
:100D30008A01811110C08091890181110CC08091BC
:100D40008801811108C0609187016C25609387013B
:100D50008CE00E94B5008091860181111EC08091B7
:100D60008501811110C080918401882361F0609118
:100D700083016C25609383018FE00E94B500809110
:100D8000860181110AC080918201811106C06FE045
:100D900070E08EE090E00E945F026BE070E080E126
:100DA00090E00E945F026AE070E081E190E00E94C2
:100DB0005F0269E070E082E190E00E945F028DE0F6
:100DC000E82EF12C0BE811E02EE831E04EE751E07F
:100DD00064E071E088E090E00E94E2029CE0E92E8D
:100DE000F12C07E811E02AE831E04AE751E062E03F
:100DF00071E087E090E00E94E2022FE0E22EF12C09
:100E000003E811E026E831E046E751E060E071E0F8
:100E100086E090E00E94E202A114B10409F4A8CE99
:100E20000E94BC01882309F4A3CE0E940000A0CE3A
:100E3000740147014FEF841A940AF7018081082E4C
:100E4000000C990B0E949408892B91F7015011090D
:100E5000060D171DF8018081082E000C990B0E94C9
:100E60009408892B31F00E151F0518F00150110957
:100E7000F1CF0F5F1F4FA8014E195F095C874B87A9
:100E80006E147F0420F4B701C3010E94160BEF819A
:100E9000F8858B859C85E80FF91F1082A5CE02305E
:100EA000110519F4D0928901CECE0330110509F055
:100EB000CACED0928501C7CE6DE271E0CE01019617
:100EC0000E94BE03BE016F5F7F4FCE0107960E9456
:100ED0006903182FCE0101960E9451042B853C8591
:100EE000112329F14EE050E0BE01695F7F4FCE0132
:100EF00001960E94EF03CE0101960E945E038B01D2
:100F0000CE0101960E9451040130110519F410928E
:100F10008D0199CE0230110519F41092890193CEFA
:100F20000330110509F08FCE109285018CCE232B52
:100F3000B1F00F8118856BE371E0C8010E941F0BAF
:100F4000892B19F4D09282017ECE67E471E0C8014A
:100F50000E941F0B892B19F41092820174CE62E556
:100F600071E0CE0101960E94BE03BE016F5F7F4F0C
:100F7000CE0107960E946903182FCE0101960E94A8
:100F80005104112339F12B853C8547E050E0BE0127
:100F9000695F7F4FCE0101960E94EF03CE0101965B
:100FA0000E945E038B01CE0101960E945104013024
:100FB000110519F4D0928C0146CE0230110519F4B6
:100FC000D092880140CE0330110509F03CCED0927A
:100FD000840139CE69E571E0CE0101960E94BE031D
:100FE000BE016F5F7F4FCE0107960E946903182FE5
:100FF000CE0101960E945104112309F424CE2B85C1
:101000003C8546E050E0BE01695F7F4FCE0101960E
:101010000E94EF03CE0101960E945E038B01CE0178
:1010200001960E9451040130110519F410928C01AF
:101030000ACE0230110519F41092880104CE033053
:10104000110509F000CE10928401FDCDCE0101966C
:101050000E94AC0320CEECE9F1E01382128288EE0C
:1010600093E0A0E0B0E084839583A683B78380E11A
:1010700091E09183808385EC90E09587848784EC70
:1010800090E09787868780EC90E0918B808B81EC55
:1010900090E0938B828B82EC90E0958B848B86EC36
:1010A00090E0978B868B118E128E138E148E08957E
:1010B0001F93FC0199278827BC01E89411911032F5
:1010C000E9F3193010F01E30C8F31B3251F01D3215
:1010D00049F4689406C00E947F08610F711D811D4C
:1010E000911D119110531A30B0F33EF490958095F4
:1010F000709561957F4F8F4F9F4F1F910895592F86
:10110000482F372F262F660F771F881F991F660FCE
:10111000771F881F991F620F731F841F951F660F0B
:10112000771F881F991F089591110C949D08803294
:1011300019F089508550C8F7089599278827089590
:10114000052E97FB1EF400940E94B70857FD07D0A8
:101150000E94F60807FC03D04EF40C94B708509593
:101160004095309521953F4F4F4F5F4F0895909593
:101170008095709561957F4F8F4F9F4F08952F9267
:101180003F924F925F926F927F928F929F92AF9217
:10119000BF92CF92DF92EF92FF920F931F93CF9364
:1011A000DF93CDB7DEB7CA1BDB0B0FB6F894DEBFFB
:1011B0000FBECDBF09942A88398848885F846E8421
:1011C0007D848C849B84AA84B984C884DF80EE806B
:1011D000FD800C811B81AA81B981CE0FD11D0FB674
:1011E000F894DEBF0FBECDBFED010895A1E21A2E27
:1011F000AA1BBB1BFD010DC0AA1FBB1FEE1FFF1FBB
:10120000A217B307E407F50720F0A21BB30BE40B0A
:10121000F50B661F771F881F991F1A9469F7609551
:101220007095809590959B01AC01BD01CF0108950B
:10123000A29FB001B39FC001A39F700D811D112417
:10124000911DB29F700D811D1124911D08950E9462
:101250001809B7FF0895821B930B0895EE0FFF1F27
:101260000590F491E02D09940F931F93CF93DF9392
:101270008230910510F482E090E0E0913B02F09121
:101280003C0230E020E0B0E0A0E0309799F4211576
:10129000310509F44AC0281B390B24303105D8F533
:1012A0008A819B816115710589F1FB01938382839A
:1012B000FE0111C0408151810281138148175907F5
:1012C000E0F04817590799F4109761F012960C93C3
:1012D000129713961C933296CF01DF91CF911F91F5
:1012E0000F91089500933B0210933C02F4CF211517
:1012F000310551F04217530738F0A901DB019A017B
:10130000BD01DF01F801C1CFEF01F9CF90933C029D
:1013100080933B02CDCFFE01E20FF31F81939193A7
:101320002250310939832883D7CF20913902309157
:101330003A02232B41F420910801309109013093A6
:101340003A022093390220910601309107012115BC
:10135000310541F42DB73EB740910A0150910B0180
:10136000241B350BE0913902F0913A02E217F307A2
:10137000A0F42E1B3F0B2817390778F0AC014E5F05
:101380005F4F2417350748F04E0F5F1F50933A0206
:1013900040933902819391939FCFF0E0E0E09CCF9E
:1013A000CF93DF930097E9F0FC013297138212820A
:1013B000A0913B02B0913C02ED0130E020E010979B
:1013C000A1F420813181820F931F20913902309145
:1013D0003A022817390709F061C0F0933A02E09306
:1013E0003902DF91CF910895EA01CE17DF07E8F5C2
:1013F0004A815B819E0141155105B1F7E901FB83EB
:10140000EA8349915991C40FD51FEC17FD0761F488
:10141000808191810296840F951FE90199838883C9
:10142000828193819B838A83F0E0E0E012968D9124
:101430009C9113970097B9F52D913C911197CD018F
:101440000296820F931F2091390230913A02281799
:10145000390739F6309751F510923C0210923B0251
:10146000B0933A02A0933902BCCFD383C2834081A8
:101470005181840F951FC817D90761F44E5F5F4FE4
:1014800088819981480F591F518340838A819B81AC
:10149000938382832115310509F0B0CFF0933C028C
:1014A000E0933B029ECFFD01DC01C0CF138212828C
:1014B000D7CFB0E0A0E0EFE5FAE00C94C1088C01D2
:1014C000009751F4CB010E9434098C01C801CDB7BB
:1014D000DEB7E0E10C94DD08FC01E60FF71F9C018C
:1014E00022503109E217F30708F49DC0D901CD91CC
:1014F000DC911197C617D70798F0C530D10530F3A6
:10150000CE0104978617970708F3C61BD70B2297BF
:10151000C193D1936D937C93CF010E94D009D6CF14
:101520005B01AC1ABD0A4C018C0E9D1EA0913B02C2
:10153000B0913C02512C412CF12CE12C109731F54B
:101540008091390290913A028815990509F05CC0A2
:101550004616570608F058C0809106019091070181
:10156000009741F48DB79EB740910A0150910B014D
:10157000841B950BE817F90708F055C0F0933A0261
:10158000E0933902F90171836083A0CF8D919C9122
:10159000119712966C90129713967C901397A8153A
:1015A000B90559F56C0142E0C40ED11CCA14DB0424
:1015B00020F1AC014A195B09DA011296159780F007
:1015C0006282738251834083D9016D937C93E114CD
:1015D000F10471F0D7011396FC93EE93129776CF36
:1015E00022968C0F9D1FF90191838083F301EFCF29
:1015F000F0933C02E0933B0269CF4816590608F489
:101600002C017D01D3019ACFCB010E9434097C01CA
:10161000009749F0AE01B8010E94160BC8010E9464
:10162000D009870153CF10E000E050CFFB01DC016F
:1016300002C001900D9241505040D8F70895FB012F
:10164000DC018D91019080190110D9F3990B089557
:10165000FB01DC0101900D920020E1F70895FB01F0
:10166000DC014150504030F08D910190801919F407
:0E1670000020B9F7881B990B0895F894FFCF5E
:10167E0001000100010000003D028000000000009A
:10168E00F20120014D013F02B0015C01A20164692B
:10169E007361626C6520627574746F6E00656E6145
:1016AE00626C6520627574746F6E0064697361623A
:1016BE006C6520706F7400656E61626C6520706F72
:1016CE0074004C65644F6666004C65644F6E004353
:1016DE006F6D6D616E642065786563757465643ACF
:0616EE0020000D0A0000BF
:00000001FF
