:020000040000FA
:100000000C9462000C948A000C948A000C948A0070
:100010000C948A000C948A000C948A000C948A0038
:100020000C948A000C948A000C948A000C948A0028
:100030000C948A000C948A000C948A000C948A0018
:100040000C94CB030C948A000C943B040C94150480
:100050000C948A000C948A000C948A000C948A00F8
:100060000C948A000C948A000000000023002600F3
:10007000290000000000240027002A0000000000E2
:10008000250028002B0004040404040404040202D4
:100090000202020203030303030301020408102007
:1000A0004080010204081020010204081020000012
:1000B0000008000201000003040700000000000027
:1000C0000000160711241FBECFEFD8E0DEBFCDBF62
:1000D00011E0A0E0B1E0E2E4F4E102C005900D928D
:1000E000A434B107D9F722E0A4E4B1E001C01D9225
:1000F000A530B207E1F710E0C2E6D0E004C02197D6
:10010000FE010E941908C136D107C9F70E946D048B
:100110000C941F0A0C940000833081F028F4813085
:1001200099F08230A9F008958730A9F08830C9F09D
:100130008430B1F4809180008F7D03C08091800075
:100140008F7780938000089584B58F7784BD08955C
:1001500084B58F7DFBCF8091B0008F778093B00006
:1001600008958091B0008F7DF9CF1F93CF93DF93D7
:10017000282F30E0F901E255FF4F8491F901E6564E
:10018000FF4FD491F901EA57FF4FC491CC23A9F056
:10019000162F81110E948C00EC2FF0E0EE0FFF1F54
:1001A000E458FF4FA591B4918FB7F894EC911111D9
:1001B00008C0D095DE23DC938FBFDF91CF911F91D4
:1001C0000895DE2BF8CFCF93DF9390E0FC01E65645
:1001D000FF4F24918A579F4FFC0184918823D1F0CF
:1001E00090E0880F991FFC01EE58FF4FA591B49144
:1001F000FC01E458FF4FC591D491623071F49FB770
:10020000F8943C91822F809583238C93E8812E2B48
:1002100028839FBFDF91CF9108958FB7F894EC9119
:100220002E2B2C938FBFF6CF2FB7F89460916001DF
:100230007091610180916201909163012FBF0895D7
:10024000AF92BF92CF92DF92EF92FF920F931F93E4
:10025000CF93DF936C017B018B01040F151FEB0122
:100260005E01AE18BF08C017D10759F06991D601D9
:10027000ED91FC910190F081E02DC6010995892B4B
:1002800079F7C501DF91CF911F910F91FF90EF900A
:10029000DF90CF90BF90AF900895FC01538D448DB7
:1002A000252F30E0842F90E0821B930B541710F021
:1002B000CF96089501970895FC01918D828D98172E
:1002C00061F0A28DAE0FBF2FB11D5D968C91928D06
:1002D0009F5F9F73928F90E008958FEF9FEF089537
:1002E0000F931F930E94140160936C0170936D0132
:1002F00080936E0190936F0184E691E00E945C010F
:1003000097FF1DC00E94140100916C0110916D01B6
:1003100020916E0130916F01601B710B820B930B6A
:10032000009168011091690120916A0130916B017F
:100330006017710782079307F8F28FEF9FEF1F9105
:100340000F910895FC01918D828D981731F0828D67
:10035000E80FF11D858D90E008958FEF9FEF0895D0
:10036000FC01918D228D892F90E0805C9F4F821B34
:1003700091098F739927089584E691E00E94B00156
:1003800021E0892B09F420E0822F089580E090E09D
:10039000892B29F00E94BC0181110C940000089562
:1003A000FC01A48DA80FB92FB11DA35ABF4F2C91EA
:1003B000848D90E001968F739927848FA689B789E1
:1003C0002C93A089B1898C91837080648C93938DD8
:1003D000848D981306C00288F389E02D80818F7D7B
:1003E00080830895EF92FF920F931F93CF93DF9333
:1003F000EC0181E0888F9B8D8C8D98131AC0E88961
:10040000F989808185FF15C09FB7F894EE89FF892F
:100410006083E889F98980818370806480839FBFCD
:1004200081E090E0DF91CF911F910F91FF90EF90CD
:100430000895F62E0B8D10E00F5F1F4F0F731127DD
:10044000E02E8C8D8E110CC00FB607FCFACFE88918
:10045000F989808185FFF5CFCE010E94D001F1CFCF
:10046000EB8DEC0FFD2FF11DE35AFF4FF0829FB78C
:10047000F8940B8FEA89FB8980818062CFCFCF937C
:10048000DF93EC01888D8823B9F0AA89BB89E889BC
:10049000F9898C9185FD03C0808186FD0DC00FB662
:1004A00007FCF7CF8C9185FFF2CF808185FFEDCFE0
:1004B000CE010E94D001E9CFDF91CF910895EF9254
:1004C000FF920F931F93CF93DF938B018E50806425
:1004D00080937C0080917A00806480937A00809180
:1004E0007A0086FDFCCFA0917800B09179002FEFC3
:1004F00030E00E9412082FEF33E040E050E00E940D
:100500008B07E901790161E0802F0E94E3002097C9
:1005100051F460E0802FDF91CF911F910F91FF90F8
:10052000EF900C94B500CF3FD10511F461E0F2CF0C
:10053000F801E255FF4FE491E33051F148F4E13026
:10054000B9F0E23001F180E8E816F1047CF7E1CF80
:10055000E73041F1E83071F1E430A9F78091800093
:10056000806280938000D0938B00C0938A0004C087
:1005700084B5806884BDC7BDDF91CF911F910F9175
:10058000FF90EF90089584B5806284BDC8BDF4CF1C
:1005900080918000806880938000D0938900C09310
:1005A0008800EACF8091B00080688093B000C0934B
:1005B000B300E2CF8091B00080628093B000C0931E
:1005C000B400DACF4F925F926F927F928F929F9298
:1005D000AF92BF92CF92DF92EF920F931F93CF9380
:1005E000DF93DC016B014A015901E801FC01E2558E
:1005F000FF4F8491FD01E656FF4F1491FD01EA572C
:10060000FF4F0491002309F451C081110E948C0016
:10061000E02FF0E0EE0FFF1FE859FF4FA591B491D6
:10062000EC911E2391E080E009F490E0092F182F4F
:10063000F601808191818017910739F00E941401A1
:10064000F40160837183828393830E941401F40117
:10065000408051806280738064197509860997090A
:10066000633371058105910570F00115110559F489
:10067000F501808181111DC081E08083188260E0D6
:100680008E2D0E94B500F60111830083DF91CF917A
:100690001F910F91EF90DF90CF90BF90AF909F9000
:1006A0008F907F906F905F904F90089510E000E0E2
:1006B000BFCF688181E068276883E2CF0F931F93E3
:1006C000CF93DF93EC0188819981009759F02A81BB
:1006D0003B812617370730F081E0DF91CF911F91E2
:1006E0000F9108958B016F5F7F4F0E94440900971F
:1006F00059F0998388831B830A832C813D81232BA6
:1007000059F7FC011082E8CF80E0E7CFCF93DF9369
:10071000EC0188819981009711F00E94BB08198231
:1007200018821D821C821B821A82DF91CF9108954C
:10073000EF92FF920F931F93CF93DF938C017B0176
:10074000EB0109900020E9F72197C61BD70BBE01EA
:100750000E945E03811109C0C801DF91CF911F91F2
:100760000F91FF90EF900C948603F801D583C4831A
:10077000B70180819181DF91CF911F910F91FF90FF
:10078000EF900C940A0AFC0180819181009711F08E
:100790000C94BB0808951F920F920FB60F9211246C
:1007A0002F933F938F939F93AF93BF93809160015B
:1007B00090916101A0916201B091630130915F015C
:1007C00023E0230F2D3758F50196A11DB11D20936D
:1007D0005F018093600190936101A0936201B093E7
:1007E000630180915B0190915C01A0915D01B091EA
:1007F0005E010196A11DB11D80935B0190935C0188
:10080000A0935D01B0935E01BF91AF919F918F91D5
:100810003F912F910F900FBE0F901F90189526E8D3
:10082000230F0296A11DB11DD2CF1F920F920FB6BA
:100830000F9211242F933F934F935F936F937F9366
:100840008F939F93AF93BF93EF93FF9384E691E0D1
:100850000E94D001FF91EF91BF91AF919F918F9135
:100860007F916F915F914F913F912F910F900FBEAC
:100870000F901F9018951F920F920FB60F92112490
:100880002F938F939F93EF93FF93E0917401F091D7
:1008900075018081E0917A01F0917B0182FD1BC09E
:1008A000908180917D018F5F8F7320917E018217EF
:1008B00041F0E0917D01F0E0EC59FE4F958F80937F
:1008C0007D01FF91EF919F918F912F910F900FBE1E
:1008D0000F901F9018958081F4CFCF93DF93CDB701
:1008E000DEB72C970FB6F894DEBF0FBECDBF78945D
:1008F00084B5826084BD84B5816084BD85B5826025
:1009000085BD85B5816085BD80916E0081608093D5
:100910006E0010928100809181008260809381003E
:10092000809181008160809381008091800081604E
:10093000809380008091B10084608093B1008091A9
:10094000B00081608093B00080917A0084608093D1
:100950007A0080917A00826080937A0080917A0098
:10096000816080937A0080917A00806880937A0019
:100970001092C10061E08DE00E94E30061E08CE034
:100980000E94E30061E08FE00E94E30061E08BE001
:100990000E94E30061E08AE00E94E30061E089E0F8
:1009A0000E94E30062E088E00E94E30062E087E0EA
:1009B0000E94E30062E086E00E94E300609154013F
:1009C0008DE00E94B500609152018CE00E94B5005C
:1009D000609150018FE00E94B500E0917401F091A8
:1009E000750182E08083E0917001F09171011082C5
:1009F000E0917201F09173018FEC808310927C0181
:100A0000E0917801F091790186E08083E0917601B0
:100A1000F0917701808180618083E0917601F0918F
:100A20007701808188608083E0917601F091770181
:100A3000808180688083E0917601F09177018081E8
:100A40008F7D80837724739450E0A52E50E0B52EDF
:100A50006624639484E691E00E94B001181619069A
:100A60000CF004C118861F821A8619861C861B8604
:100A700062E471E0CE0107960E9498030E94700123
:100A800097FD1EC08A309105D9F089831A820B85A3
:100A90001C850F5F1F4FB801CE0107960E945E03B1
:100AA000882361F32F8138858B859C85BE016F5F1C
:100AB0007F4F820F931F0E940A0A1C870B87DECF8D
:100AC000CF80D884C114D10439F00B851C85760100
:100AD0000115110509F067C11A8219821C821B8257
:100AE0001E821D826EE171E0CE0101960E94980384
:100AF0004D815E818B859C858417950770F08F8171
:100B00009885009751F069817A816115710529F006
:100B10000E94110A11E0892B09F010E0CE01019624
:100B20000E94C303112309F49DC0CB84DC843FE001
:100B3000E32EF12CFFE0CF16D10420F476014FE034
:100B4000C42ED12C1A8219821C821B821E821D8205
:100B500062E471E0CE0101960E9498030B851C852A
:100B6000E016F10650F5C016D10608F48601EF81B3
:100B7000F885E00FF11F908010828F819885E80E34
:100B8000F91EE114F10479F0F70101900020E9F772
:100B900031976F01CE18DF08B601CE0101960E9491
:100BA0005E03811136C1CE0101960E9486038F81BA
:100BB0009885080F191FF801908289819A81C12CAC
:100BC000D12C7601009719F00E9443076B01CE01EA
:100BD00001960E94C303CA94CD2811F46092550176
:100BE0001A8219821C821B821E821D826DE271E0B4
:100BF000CE0101960E949803EF80F884E114F1047D
:100C000009F40FC10B851C8501151105B9F08D8103
:100C10009E81080F191FB801CE0101960E945E0344
:100C2000882309F4FEC029813A818D819E81B70114
:100C3000820F931F0E940A0A1E830D834D815E81DD
:100C400069817A8184E691E00E94200142E050E0CF
:100C500060E471E084E691E00E942001CE010196FB
:100C60000E94C303CE0107960E94C3030E94140191
:100C700000915701109158012091590130915A016A
:100C80006B017C01C01AD10AE20AF30A97018601BE
:100C9000003D17402105310580F1609357017093A5
:100CA00058018093590190935A0180915601811106
:100CB0000CC080915501811108C0609154016725D5
:100CC000609354018DE00E94B50080915301811121
:100CD00008C0609152016725609352018CE00E9428
:100CE000B50080915101811112C0609150016725BA
:100CF000609350018FE00E94B500809151018111F5
:100D000006C06FE070E08EE090E00E945F026BE052
:100D100070E080E190E00E945F026AE070E081E1B3
:100D200090E00E945F0269E070E082E190E00E9442
:100D30005F028DE0E82EF12C04E511E026E531E0BC
:100D40004CE451E064E071E088E090E00E94E2024F
:100D50009CE0E92EF12C02E511E023E531E048E4C6
:100D600051E062E071E087E090E00E94E2022FE053
:100D7000E22EF12C00E511E021E531E044E451E000
:100D800060E071E086E090E00E94E202A114B1040C
:100D900009F460CE0E94BC01882309F45BCE0E9456
:100DA000000058CE740147014FEF841A940AF701EE
:100DB0008081082E000C990B0E947F07892B91F7E8
:100DC000015011090C0D1D1DF8018081082E000C29
:100DD000990B0E947F07892B31F00E151F0518F023
:100DE00001501109F1CF0F5F1F4FA8014E195F0984
:100DF0005C874B87CE14DF0420F4B701C6010E9444
:100E0000010AEF81F8858B859C85E80FF91F108218
:100E100063CEDE82CD82B70189819A810E940A0A5F
:100E2000C6CECE0101960E94860308CFE4E6F1E02B
:100E30001382128288EE93E0A0E0B0E08483958371
:100E4000A683B78380E191E09183808385EC90E075
:100E50009587848784EC90E09787868780EC90E084
:100E6000918B808B81EC90E0938B828B82EC90E075
:100E7000958B848B86EC90E0978B868B118E128EEF
:100E8000138E148E08951F93FC0199278827BC01A7
:100E9000E89411911032E9F3193010F01E30C8F3C4
:100EA0001B3251F01D3249F4689406C00E946A0753
:100EB000610F711D811D911D119110531A30B0F3F6
:100EC0003EF490958095709561957F4F8F4F9F4F21
:100ED0001F910895592F482F372F262F660F771F00
:100EE000881F991F660F771F881F991F620F731F36
:100EF000841F951F660F771F881F991F08959111F2
:100F00000C948807803219F089508550C8F70895ED
:100F1000992788270895052E97FB1EF400940E94B8
:100F2000A20757FD07D00E94E10707FC03D04EF44B
:100F30000C94A20750954095309521953F4F4F4F07
:100F40005F4F089590958095709561957F4F8F4F75
:100F50009F4F08952F923F924F925F926F927F9290
:100F60008F929F92AF92BF92CF92DF92EF92FF92B9
:100F70000F931F93CF93DF93CDB7DEB7CA1BDB0B65
:100F80000FB6F894DEBF0FBECDBF09942A8839880A
:100F900048885F846E847D848C849B84AA84B98411
:100FA000C884DF80EE80FD800C811B81AA81B9811D
:100FB000CE0FD11D0FB6F894DEBF0FBECDBFED0131
:100FC0000895A1E21A2EAA1BBB1BFD010DC0AA1F8A
:100FD000BB1FEE1FFF1FA217B307E407F50720F0A2
:100FE000A21BB30BE40BF50B661F771F881F991F1D
:100FF0001A9469F760957095809590959B01AC0166
:10100000BD01CF010895A29FB001B39FC001A39F6E
:10101000700D811D1124911DB29F700D811D112431
:10102000911D08950E940308B7FF0895821B930B3A
:101030000895EE0FFF1F0590F491E02D09940F9392
:101040001F93CF93DF938230910510F482E090E0FC
:10105000E0910302F091040230E020E0B0E0A0E073
:10106000309799F42115310509F44AC0281B390B32
:1010700024303105D8F58A819B816115710589F18C
:10108000FB0193838283FE0111C040815181028163
:10109000138148175907E0F04817590799F410973A
:1010A00061F012960C93129713961C933296CF010F
:1010B000DF91CF911F910F91089500930302109338
:1010C0000402F4CF2115310551F04217530738F0CF
:1010D000A901DB019A01BD01DF01F801C1CFEF01D8
:1010E000F9CF9093040280930302CDCFFE01E20F6B
:1010F000F31F819391932250310939832883D7CFED
:101100002091010230910202232B41F42091080129
:1011100030910901309302022093010220910601CF
:10112000309107012115310541F42DB73EB74091AB
:101130000A0150910B01241B350BE0910102F09143
:101140000202E217F307A0F42E1B3F0B2817390702
:1011500078F0AC014E5F5F4F2417350748F04E0F13
:101160005F1F5093020240930102819391939FCF9E
:10117000F0E0E0E09CCFCF93DF930097E9F0FC0133
:10118000329713821282A0910302B0910402ED0102
:1011900030E020E01097A1F420813181820F931F6D
:1011A00020910102309102022817390709F061C02D
:1011B000F0930202E0930102DF91CF910895EA01DA
:1011C000CE17DF07E8F54A815B819E014115510585
:1011D000B1F7E901FB83EA8349915991C40FD51F07
:1011E000EC17FD0761F4808191810296840F951FB1
:1011F000E90199838883828193819B838A83F0E0CC
:10120000E0E012968D919C9113970097B9F52D917E
:101210003C911197CD010296820F931F20910102FC
:10122000309102022817390739F6309751F510929C
:10123000040210920302B0930202A0930102BCCFF9
:10124000D383C28340815181840F951FC817D9076A
:1012500061F44E5F5F4F88819981480F591F518318
:1012600040838A819B81938382832115310509F014
:10127000B0CFF0930402E09303029ECFFD01DC01A6
:10128000C0CF13821282D7CFB0E0A0E0EAE4F9E049
:101290000C94AC078C01009751F4CB010E941F08FD
:1012A0008C01C801CDB7DEB7E0E10C94C807FC01A2
:1012B000E60FF71F9C0122503109E217F30708F4EB
:1012C0009DC0D901CD91DC911197C617D70798F031
:1012D000C530D10530F3CE0104978617970708F380
:1012E000C61BD70B2297C193D1936D937C93CF01EB
:1012F0000E94BB08D6CF5B01AC1ABD0A4C018C0E14
:101300009D1EA0910302B0910402512C412CF12C9E
:10131000E12C109731F5809101029091020288151D
:10132000990509F05CC04616570608F058C0809130
:10133000060190910701009741F48DB79EB7409147
:101340000A0150910B01841B950BE817F90708F06F
:1013500055C0F0930202E0930102F90171836083AA
:10136000A0CF8D919C91119712966C901297139625
:101370007C901397A815B90559F56C0142E0C40E8D
:10138000D11CCA14DB0420F1AC014A195B09DA0153
:101390001296159780F06282738251834083D9013F
:1013A0006D937C93E114F10471F0D7011396FC93D3
:1013B000EE93129776CF22968C0F9D1FF9019183A1
:1013C0008083F301EFCFF0930402E093030269CF2F
:1013D0004816590608F42C017D01D3019ACFCB01A0
:1013E0000E941F087C01009749F0AE01B8010E94DD
:1013F000010AC8010E94BB08870153CF10E000E03A
:1014000050CFFB01DC0102C001900D9241505040D1
:10141000D8F70895FB01DC0101900D920020E1F75F
:101420000895FB01DC014150504030F08D91019056
:10143000801919F40020B9F7881B990B0895F894C6
:10144000FFCF010001000100000005028000000044
:101450000000F20120014D013F02B0015C01A20138
:1014600064697361626C6520627574746F6E0043A9
:101470006F6D6D616E642065786563757465643A3F
:0614800020000D0A00002F
:107E0000112484B714BE81FFF0D085E080938100F7
:107E100082E08093C00088E18093C10086E0809377
:107E2000C20080E18093C4008EE0C9D0259A86E02C
:107E300020E33CEF91E0309385002093840096BBD3
:107E4000B09BFECF1D9AA8958150A9F7CC24DD24C4
:107E500088248394B5E0AB2EA1E19A2EF3E0BF2EE7
:107E6000A2D0813461F49FD0082FAFD0023811F036
:107E7000013811F484E001C083E08DD089C08234E0
:107E800011F484E103C0853419F485E0A6D080C0E4
:107E9000853579F488D0E82EFF2485D0082F10E0AE
:107EA000102F00270E291F29000F111F8ED06801E7
:107EB0006FC0863521F484E090D080E0DECF843638
:107EC00009F040C070D06FD0082F6DD080E0C81688
:107ED00080E7D80618F4F601B7BEE895C0E0D1E017
:107EE00062D089930C17E1F7F0E0CF16F0E7DF06D8
:107EF00018F0F601B7BEE89568D007B600FCFDCFD4
:107F0000A601A0E0B1E02C9130E011968C91119780
:107F100090E0982F8827822B932B1296FA010C0160
:107F200087BEE89511244E5F5F4FF1E0A038BF0790
:107F300051F7F601A7BEE89507B600FCFDCF97BE46
:107F4000E89526C08437B1F42ED02DD0F82E2BD052
:107F50003CD0F601EF2C8F010F5F1F4F84911BD097
:107F6000EA94F801C1F70894C11CD11CFA94CF0C13
:107F7000D11C0EC0853739F428D08EE10CD085E9AC
:107F80000AD08FE07ACF813511F488E018D01DD067
:107F900080E101D065CF982F8091C00085FFFCCF94
:107FA0009093C60008958091C00087FFFCCF809118
:107FB000C00084FD01C0A8958091C6000895E0E648
:107FC000F0E098E1908380830895EDDF803219F02E
:107FD00088E0F5DFFFCF84E1DECF1F93182FE3DFCA
:107FE0001150E9F7F2DF1F91089580E0E8DFEE27F6
:047FF000FF270994CA
:027FFE00040479
:00000001FF
