:020000040000FA
:100000000C9461000C947E000C947E000C947E0095
:100010000C947E000C947E000C947E000C947E0068
:100020000C947E000C947E000C947E000C947E0058
:100030000C947E000C947E000C947E000C947E0048
:100040000C943D010C947E000C947E000C947E0078
:100050000C947E000C947E000C947E000C947E0028
:100060000C947E000C947E00000000002400270009
:100070002A0000000000250028002B0000000000DE
:1000800023002600290004040404040404040202DA
:100090000202020203030303030301020408102007
:1000A0004080010204081020010204081020000012
:1000B0000008000201000003040700000000000027
:1000C000000011241FBECFEFD8E0DEBFCDBF11E08E
:1000D000A0E0B1E0ECE0F5E002C005900D92A430A4
:1000E000B107D9F721E0A4E0B1E001C01D92A6312B
:1000F000B207E1F70E9487010C9484020C9400007F
:10010000833081F028F4813099F08230A9F008958D
:100110008730A9F08830C9F08430B1F48091800034
:100120008F7D03C0809180008F7780938000089539
:1001300084B58F7784BD089584B58F7DFBCF809182
:10014000B0008F778093B00008958091B0008F7DCC
:10015000F9CFCF93DF93282F30E0F901E255FF4F1D
:100160008491F901E656FF4FD491F901EA57FF4F08
:10017000C491CC23A1F081110E948000EC2FF0E00B
:10018000EE0FFF1FE458FF4FA591B491EC91ED23C2
:1001900081E090E009F480E0DF91CF91089580E064
:1001A00090E0FACF1F93CF93DF93282F30E0F9012F
:1001B000E255FF4F8491F901E656FF4FD491F901C2
:1001C000EA57FF4FC491CC23A9F0162F81110E944A
:1001D0008000EC2FF0E0EE0FFF1FEE58FF4FA591CF
:1001E000B4918FB7F894EC91111108C0D095DE232B
:1001F000DC938FBFDF91CF911F910895DE2BF8CF55
:10020000CF93DF9390E0FC01E656FF4F24918A578D
:100210009F4FFC0184918823D1F090E0880F991FB3
:10022000FC01E859FF4FA591B491FC01EE58FF4F36
:10023000C591D491623071F49FB7F8943C91822FAC
:10024000809583238C93E8812E2B28839FBFDF9199
:10025000CF9108958FB7F894EC912E2B2C938FBFEC
:10026000F6CF2FB7F894609112017091130180912D
:100270001401909115012FBF08951F920F920FB690
:100280000F9211242F933F938F939F93AF93BF931C
:100290008091120190911301A0911401B091150168
:1002A0003091110123E0230F2D3758F50196A11D40
:1002B000B11D209311018093120190931301A0931B
:1002C0001401B093150180910D0190910E01A09140
:1002D0000F01B09110010196A11DB11D80930D0178
:1002E00090930E01A0930F01B0931001BF91AF91B5
:1002F0009F918F913F912F910F900FBE0F901F9064
:10030000189526E8230F0296A11DB11DD2CF78942F
:1003100084B5826084BD84B5816084BD85B582600A
:1003200085BD85B5816085BD80916E0081608093BB
:100330006E00109281008091810082608093810024
:100340008091810081608093810080918000816034
:10035000809380008091B10084608093B10080918F
:10036000B00081608093B00080917A0084608093B7
:100370007A0080917A00826080937A0080917A007E
:10038000816080937A0080917A00806880937A00FF
:100390001092C10061E08DE00E94000161E08CE0FC
:1003A0000E94000161E08FE00E94000162E088E0AD
:1003B0000E94000162E087E00E94000162E086E0A6
:1003C0000E940001FF24F39400E010E00E9431013C
:1003D0008090090190900A01A0900B01B0900C014F
:1003E0009B01AC01281939094A095B0949015A01E5
:1003F00030ED831637E09306A104B104C8F0609392
:10040000090170930A0180930B0190930C01C09134
:100410000801CF25C09308016C2F8DE00E94D20007
:100420006C2F8CE00E94D2006C2F8FE00E94D200D3
:1004300088E00E94A900EC0187E00E94A9004C011D
:1004400086E00E94A9005C01809102019091030165
:10045000C817D90751F00E943101609304017093CD
:10046000050180930601909307018A94892851F031
:100470000E9431016093040170930501809306018D
:1004800090930701AA94AB2851F00E943101609328
:1004900004017093050180930601909307010E9467
:1004A00031018090040190900501A0900601B09068
:1004B0000701681979098A099B0963337105810568
:1004C0009105B8F08091000190910101C817D907FA
:1004D00081F0D0930101C0930001209751F48DE089
:1004E0000E94A90061E0892B09F060E08DE00E9484
:1004F000D200D0930301C09302010115110509F444
:1005000065CF0E94000062CFF894FFCF0100010088
:107E0000112484B714BE81FFF0D085E080938100F7
:107E100082E08093C00088E18093C10086E0809377
:107E2000C20080E18093C4008EE0C9D0259A86E02C
:107E300020E33CEF91E0309385002093840096BBD3
:107E4000B09BFECF1D9AA8958150A9F7CC24DD24C4
:107E500088248394B5E0AB2EA1E19A2EF3E0BF2EE7
:107E6000A2D0813461F49FD0082FAFD0023811F036
:107E7000013811F484E001C083E08DD089C08234E0
:107E800011F484E103C0853419F485E0A6D080C0E4
:107E9000853579F488D0E82EFF2485D0082F10E0AE
:107EA000102F00270E291F29000F111F8ED06801E7
:107EB0006FC0863521F484E090D080E0DECF843638
:107EC00009F040C070D06FD0082F6DD080E0C81688
:107ED00080E7D80618F4F601B7BEE895C0E0D1E017
:107EE00062D089930C17E1F7F0E0CF16F0E7DF06D8
:107EF00018F0F601B7BEE89568D007B600FCFDCFD4
:107F0000A601A0E0B1E02C9130E011968C91119780
:107F100090E0982F8827822B932B1296FA010C0160
:107F200087BEE89511244E5F5F4FF1E0A038BF0790
:107F300051F7F601A7BEE89507B600FCFDCF97BE46
:107F4000E89526C08437B1F42ED02DD0F82E2BD052
:107F50003CD0F601EF2C8F010F5F1F4F84911BD097
:107F6000EA94F801C1F70894C11CD11CFA94CF0C13
:107F7000D11C0EC0853739F428D08EE10CD085E9AC
:107F80000AD08FE07ACF813511F488E018D01DD067
:107F900080E101D065CF982F8091C00085FFFCCF94
:107FA0009093C60008958091C00087FFFCCF809118
:107FB000C00084FD01C0A8958091C6000895E0E648
:107FC000F0E098E1908380830895EDDF803219F02E
:107FD00088E0F5DFFFCF84E1DECF1F93182FE3DFCA
:107FE0001150E9F7F2DF1F91089580E0E8DFEE27F6
:047FF000FF270994CA
:027FFE00040479
:00000001FF
