:100000000C9462000C9437050C9410050C948A0033
:100010000C948A000C948A000C948A000C948A0038
:100020000C948A000C948A000C948A000C948A0028
:100030000C948A000C948A000C948A000C948A0018
:100040000C94C6040C948A000C9484050C945E05F0
:100050000C948A000C948A000C948A000C948A00F8
:100060000C948A000C948A000000000023002600F3
:10007000290000000000240027002A0000000000E2
:10008000250028002B0004040404040404040202D4
:100090000202020203030303030301020408102007
:1000A0004080010204081020010204081020000012
:1000B0000008000201000003040700000000000027
:1000C0000000600911241FBECFEFD8E0DEBFCDBF16
:1000D00011E0A0E0B1E0E8EEF8E102C005900D9279
:1000E000AA39B107D9F722E0AAE9B1E001C01D920F
:1000F000A536B207E1F710E0C2E6D0E004C02197D0
:10010000FE010E94630AC136D107C9F70E94B605F5
:100110000C94720C0C940000833081F028F4813030
:1001200099F08230A9F008958730A9F08830C9F09D
:100130008430B1F4809180008F7D03C08091800075
:100140008F7780938000089584B58F7784BD08955C
:1001500084B58F7DFBCF8091B0008F778093B00006
:1001600008958091B0008F7DF9CF1F93CF93DF93D7
:10017000282F30E0F901E255FF4F8491F901E6564E
:10018000FF4FD491F901EA57FF4FC491CC23A9F056
:10019000162F81110E948C00EC2FF0E0EE0FFF1F54
:1001A000E458FF4FA591B4918FB7F894EC911111D9
:1001B00008C0D095DE23DC938FBFDF91CF911F91D4
:1001C0000895DE2BF8CFCF93DF9390E0FC01E65645
:1001D000FF4F24918A579F4FFC0184918823D1F0CF
:1001E00090E0880F991FFC01EE58FF4FA591B49144
:1001F000FC01E458FF4FC591D491623071F49FB770
:10020000F8943C91822F809583238C93E8812E2B48
:1002100028839FBFDF91CF9108958FB7F894EC9119
:100220002E2B2C938FBFF6CF1F93CF93DF93182FD6
:10023000EB0161E00E94E300209739F460E0812F38
:10024000DF91CF911F910C94B500CF3FD10511F4F0
:1002500061E0F5CFE12FF0E0E255FF4FE491E330AC
:1002600031F140F4E130B1F0E230E1F0C038D105D5
:100270007CF7E4CFE73029F1E83059F1E430B1F709
:1002800080918000806280938000D0938B00C09327
:100290008A0004C084B5806884BDC7BDDF91CF915A
:1002A0001F91089584B5806284BDC8BDF7CF809149
:1002B0008000806880938000D0938900C09388007C
:1002C000EDCF8091B00080688093B000C093B30000
:1002D000E5CF8091B00080628093B000C093B400FD
:1002E000DDCF2FB7F8946091C0017091C10180916A
:1002F000C2019091C3012FBF08950895AF92BF929C
:10030000CF92DF92EF92FF920F931F93CF93DF93E1
:100310006C017B018B01040F151FEB015E01AE1810
:10032000BF08C017D10759F06991D601ED91FC9132
:100330000190F081E02DC6010995892B79F7C5015F
:10034000DF91CF911F910F91FF90EF90DF90CF90B1
:10035000BF90AF900895FC01538D448D252F30E060
:10036000842F90E0821B930B541710F0CF960895C2
:1003700001970895FC01918D828D981761F0A28DEF
:10038000AE0FBF2FB11D5D968C91928D9F5F9F73B5
:10039000928F90E008958FEF9FEF08950F931F9332
:1003A0000E9471016093CC017093CD018093CE01C6
:1003B0009093CF0184EC91E00E94BA0197FF1DC099
:1003C0000E9471010091CC011091CD012091CE01CC
:1003D0003091CF01601B710B820B930B0091C80110
:1003E0001091C9012091CA013091CB0160177107AA
:1003F00082079307F8F28FEF9FEF1F910F910895F7
:10040000FC01918D828D981731F0828DE80FF11DDE
:10041000858D90E008958FEF9FEF0895FC01918DF9
:10042000228D892F90E0805C9F4F821B91098F73F2
:100430009927089584EC91E00E940E0221E0892B17
:1004400009F420E0822F089580E090E0892B29F0C4
:100450000E941A0281110C9400000895FC01A48DE1
:10046000A80FB92FB11DA35ABF4F2C91848D90E0D6
:1004700001968F739927848FA689B7892C93A089B9
:10048000B1898C91837080648C93938D848D981343
:1004900006C00288F389E02D80818F7D80830895D6
:1004A000EF92FF920F931F93CF93DF93EC0181E0C4
:1004B000888F9B8D8C8D98131AC0E889F98980816B
:1004C00085FF15C09FB7F894EE89FF896083E8899E
:1004D000F98980818370806480839FBF81E090E090
:1004E000DF91CF911F910F91FF90EF900895F62E1D
:1004F0000B8D10E00F5F1F4F0F731127E02E8C8DB7
:100500008E110CC00FB607FCFACFE889F9898081FB
:1005100085FFF5CFCE010E942E02F1CFEB8DEC0FBF
:10052000FD2FF11DE35AFF4FF0829FB7F8940B8F18
:10053000EA89FB8980818062CFCFCF93DF93EC0182
:10054000888D8823B9F0AA89BB89E889F9898C91BB
:1005500085FD03C0808186FD0DC00FB607FCF7CF77
:100560008C9185FFF2CF808185FFEDCFCE010E9477
:100570002E02E9CFDF91CF910895CF93C62F8E50F1
:10058000806480937C0080917A00806480937A00FC
:1005900080917A0086FDFCCFA0917800B09179001F
:1005A0002FEF30E00E945C0A2FEF33E040E050E094
:1005B0000E94D509B9018C2FCF910C9414014F9250
:1005C0005F926F927F928F929F92AF92BF92CF92E3
:1005D000DF92EF920F931F93CF93DF93DC016B01B8
:1005E0004A015901E801FC01E255FF4F8491FD01E8
:1005F000E656FF4F1491FD01EA57FF4F0491002387
:1006000009F451C081110E948C00E02FF0E0EE0F40
:10061000FF1FE859FF4FA591B491EC911E2391E083
:1006200080E009F490E0092F182FF6018081918174
:100630008017910739F00E947101F4016083718382
:10064000828393830E947101F40140805180628013
:1006500073806419750986099709633371058105EB
:10066000910570F00115110559F4F5018081811192
:100670001DC081E08083188260E08E2D0E94B5004D
:10068000F60111830083DF91CF911F910F91EF90BD
:10069000DF90CF90BF90AF909F908F907F906F90A2
:1006A0005F904F90089510E000E0BFCF688181E037
:1006B00068276883E2CF42E050E063E271E084ECB7
:1006C00091E00C947E01CF92DF92EF92FF920F9314
:1006D0001F930E94710100919A0110919B0120913A
:1006E0009C0130919D016B017C01C01AD10AE20A84
:1006F000F30A97018601033311052105310508F43A
:1007000043C060939A0170939B0180939C019093E6
:100710009D0140E150E066E271E084EC91E00E94CE
:100720007E010E945B031092B3011092AF01109200
:10073000AB011092B6011092B2011092AE0110926C
:10074000B5011092B1011092AD011092AA01109260
:10075000B4011092B0011092AC0181E080930A01C3
:1007600060E08DE00E94B5006091AF018CE00E94D6
:10077000B5006091AB018FE01F910F91FF90EF905A
:10078000DF90CF900C94B5001F910F91FF90EF90E8
:10079000DF90CF900895FC0180819181009711F046
:1007A0000C948D0960E070E0CB010895FB01448159
:1007B0005581FC01248135812417350778F080812B
:1007C0009181009759F0FB0160817181611571057C
:1007D00029F00E94640C21E0892B09F020E0822F8F
:1007E00008950F931F93CF93DF93EC018881998134
:1007F000009759F02A813B812617370730F081E0B6
:10080000DF91CF911F910F9108958B016F5F7F4F03
:100810000E948E0B009759F0998388831B830A836B
:100820002C813D81232B59F7FC011082E8CF80E019
:10083000E7CFCF93DF93EC0188819981009711F086
:100840000E94050B198218821D821C821B821A824B
:10085000DF91CF910895EF92FF920F931F93CF9363
:10086000DF93EC017B01198218821B821A821D82A0
:100870001C82FB0101900020E9F731978F01061BD4
:10088000170BB8010E94F103811109C0CE01DF915D
:10089000CF911F910F91FF90EF900C9419041D833D
:1008A0000C83B70188819981DF91CF911F910F91BE
:1008B000FF90EF900C945D0C9F92AF92BF92CF92FD
:1008C000DF92EF92FF920F931F93CF93DF937C0100
:1008D0006B015A0189012417350720F48B2D59012A
:1008E000042F182F65E271E0C7010E942B04D60186
:1008F0001496CD91DC91AC16BD0650F50C171D0772
:1009000008F4E801D601ED91FC911197EC0FFD1F61
:10091000908010820D911C910A0D1B1D011511056F
:1009200071F0F80101900020E9F731975F01A01AFA
:10093000B10AB501C7010E94F103811116C0C701B8
:100940000E941904D6018D919C91C80FD91F9882DD
:10095000C701DF91CF911F910F91FF90EF90DF9032
:10096000CF90BF90AF909F900895F701B582A48279
:10097000B801808191810E945D0CE4CFFC018081EF
:100980009181009711F00C94050B08951F920F921E
:100990000FB60F9211242F933F938F939F93AF9392
:1009A000BF938091C0019091C101A091C201B0910B
:1009B000C3013091BF0123E0230F2D3758F5019675
:1009C000A11DB11D2093BF018093C0019093C1016F
:1009D000A093C201B093C3018091BB019091BC016F
:1009E000A091BD01B091BE010196A11DB11D8093E2
:1009F000BB019093BC01A093BD01B093BE01BF9118
:100A0000AF919F918F913F912F910F900FBE0F90BB
:100A10001F90189526E8230F0296A11DB11DD2CF75
:100A20001F920F920FB60F9211242F933F934F9363
:100A30005F936F937F938F939F93AF93BF93EF9346
:100A4000FF93E0910201F09103010995FF91EF916D
:100A5000BF91AF919F918F917F916F915F914F91D6
:100A60003F912F910F900FBE0F901F9018951F92DE
:100A70000F920FB60F9211242F933F934F935F93D2
:100A80006F937F938F939F93AF93BF93EF93FF9356
:100A9000E0910001F09101010995FF91EF91BF9163
:100AA000AF919F918F917F916F915F914F913F9106
:100AB0002F910F900FBE0F901F9018951F920F92BD
:100AC0000FB60F9211242F933F934F935F936F9321
:100AD0007F938F939F93AF93BF93EF93FF9384EC98
:100AE00091E00E942E02FF91EF91BF91AF919F91F3
:100AF0008F917F916F915F914F913F912F910F90C7
:100B00000FBE0F901F9018951F920F920FB60F9265
:100B100011242F938F939F93EF93FF93E091D40130
:100B2000F091D5018081E091DA01F091DB0182FD45
:100B30001BC090818091DD018F5F8F732091DE015A
:100B4000821741F0E091DD01F0E0EC53FE4F958F0C
:100B50008093DD01FF91EF919F918F912F910F90E5
:100B60000FBE0F901F9018958081F4CFCF93DF9325
:100B7000CDB7DEB72C970FB6F894DEBF0FBECDBF52
:100B8000789484B5826084BD84B5816084BD85B568
:100B9000826085BD85B5816085BD80916E00816074
:100BA00080936E001092810080918100826080931A
:100BB000810080918100816080938100809180001C
:100BC0008160809380008091B10084608093B10047
:100BD0008091B00081608093B00080917A00846041
:100BE00080937A0080917A00826080937A0080916D
:100BF0007A00816080937A0080917A008068809387
:100C00007A001092C10061E08DE00E94E30061E093
:100C10008CE00E94E30061E08FE00E94E30061E06D
:100C20008BE00E94E30061E08AE00E94E30061E063
:100C300089E00E94E30062E088E00E94E30062E055
:100C400087E00E94E30062E086E00E94E30062E049
:100C500082E00E94E30083E693E090930101809399
:100C60000001809169008C7F826080936900E89A1E
:100C70006091B3018DE00E94B5006091AF018CE0FE
:100C80000E94B5006091AB018FE00E94B500E09139
:100C9000D401F091D50182E08083E091D001F09100
:100CA000D1011082E091D201F091D3018FEC8083C9
:100CB0001092DC01E091D801F091D90186E08083A7
:100CC000E091D601F091D701808180618083E0912D
:100CD000D601F091D701808188608083E091D601B0
:100CE000F091D701808180688083E091D601F091F6
:100CF000D70180818F7D8083CC24C3943AE0432E3A
:100D0000512C612C712C40E0242E40E0342EDD2447
:100D1000D39484EC91E00E940E02181619060CF090
:100D20009DC065E271E0CE0107960E942B040E94EF
:100D3000CE0197FD1EC08A309105D9F089831A82B1
:100D40000B851C850F5F1F4FB801CE0107960E94CF
:100D5000F103882361F32F8138858B859C85BE0143
:100D60006F5F7F4F820F931F0E945D0C1C870B8764
:100D7000DECFAF80B884A114B10439F00B851C8597
:100D800075010115110509F025C167E371E0CE0178
:100D900001960E942B04BE016F5F7F4FCE01079624
:100DA0000E94D603182FCE0101960E94BE04112383
:100DB00009F453C12B853C854FE050E0BE01695FCB
:100DC0007F4FCE0101960E945C04CE0101960E94E5
:100DD000CB038B01CE0101960E94BE0401301105A8
:100DE00009F02EC1D092B50167E871E0CE010196FD
:100DF0000E942B04EF80F884E114F10409F44CC242
:100E00000B851C8501151105B9F08D819E81080F98
:100E1000191FB801CE0101960E94F103882309F43D
:100E20003BC229813A818D819E81B701820F931F38
:100E30000E945D0C1E830D834D815E8169817A81E4
:100E400084EC91E00E947E010E945B03CE0101963A
:100E50000E94BE04CE0107960E94BE040E9471014A
:100E60000091B7011091B8012091B9013091BA01F8
:100E70004B015C01801A910AA20AB30A9501840110
:100E8000003D17402105310508F444C06093B701C7
:100E90007093B8018093B9019093BA018091B60123
:100EA000811110C08091B50181110CC08091B401F5
:100EB000811108C06091B3016C256093B3018DE08E
:100EC0000E94B5008091B201811110C08091B101E2
:100ED00081110CC08091B001811108C06091AF01F7
:100EE0006C256093AF018CE00E94B5008091AE014B
:100EF000811110C08091AD0181110CC08091AC01B5
:100F000081110DC06091AB016C256093AB018FE046
:100F10000E94B5008091AC01882309F4C2C12091E0
:100F20000A0130E0AFEFB0E00E944D0AA301920148
:100F30000E94D509B9018FE00E9414016BE070E0B6
:100F400080E190E00E94BD026AE070E081E190E003
:100F50000E94BD0269E070E082E190E00E94BD0263
:100F60008DE0E82EF12C03EB11E026EB31E046EAB0
:100F700051E068E071E088E090E00E94DF029CE0D0
:100F8000E92EF12C0FEA11E022EB31E042EA51E0C8
:100F900066E071E087E090E00E94DF022FE0E22E41
:100FA000F12C0BEA11E02EEA31E04EE951E064E069
:100FB00071E086E090E00E94DF022114310409F420
:100FC000A8CE0E941A02882309F4A3CE0E94000032
:100FD000A0CE740147014FEF841A940AF701808173
:100FE000082E000C990B0E94C909892B91F701501A
:100FF00011090A0D1B1DF8018081082E000C990BA8
:101000000E94C909892B31F00E151F0518F00150F7
:101010001109F1CFA8014F5F5F4F4E195F095C873F
:101020004B87AE14BF0420F4B701C5010E944B0CDE
:10103000EF81F8858B859C85E80FF91F1082A5CE7E
:101040000230110519F4D092B101CECE0330110552
:1010500009F0CACED092AD01C7CE66E471E0CE01F0
:1010600001960E942B04BE016F5F7F4FCE01079651
:101070000E94D603182FCE0101960E94BE042B8534
:101080003C85112329F14EE050E0BE01695F7F4F9E
:10109000CE0101960E945C04CE0101960E94CB0312
:1010A0008B01CE0101960E94BE040130110519F496
:1010B0001092B50199CE0230110519F41092B101C8
:1010C00093CE0330110509F08FCE1092AD018CCE76
:1010D000232BB1F00F81188564E571E0C8010E94EF
:1010E000540C892B19F4D092AA017ECE60E671E0EF
:1010F000C8010E94540C892B19F41092AA0174CED5
:101100006BE671E0CE0101960E942B04BE016F5F79
:101110007F4FCE0107960E94D603182FCE0101966D
:101120000E94BE04112339F12B853C8547E050E035
:10113000BE01695F7F4FCE0101960E945C04CE0123
:1011400001960E94CB038B01CE0101960E94BE0442
:101150000130110519F4D092B40146CE02301105C8
:1011600019F4D092B00140CE0330110509F03CCE05
:10117000D092AC0139CE62E771E0CE0101960E94B7
:101180002B04BE016F5F7F4FCE0107960E94D603EE
:10119000182FCE0101960E94BE04112339F12B8530
:1011A0003C8546E050E0BE01695F7F4FCE0101966D
:1011B0000E945C04CE0101960E94CB038B01CE01FC
:1011C00001960E94BE040130110519F41092B40179
:1011D0000BCE0230110519F41092B00105CE033088
:1011E000110509F001CE1092AC01FECD68E771E067
:1011F000CE0101960E942B04BE016F5F7F4FCE018E
:1012000007960E94D603182FCE0101960E94BE04B5
:10121000112351F12B853C8549E050E0BE01695F07
:101220007F4FCE0101960E945C04CE0101960E9480
:10123000CB034B01CE0101960E94BE04FBE08F164A
:10124000910448F4D092AC0181E0892809F480E04F
:1012500080930A01C9CD8920809409F0C5CD1092F0
:10126000AC01D0920A01C0CD61E871E0CE010196D7
:101270000E942B04BE016F5F7F4FCE0107960E9434
:10128000D603182FCE0101960E94BE04112309F443
:10129000ABCD0E946303A8CDCE0101960E94190434
:1012A000CBCD8091AE01811149CE8091AA018111EF
:1012B00045CE6FE070E08EE090E00E94BD023ECE31
:1012C000E4ECF1E01382128288EE93E0A0E0B0E05B
:1012D00084839583A683B78385E191E0918380839E
:1012E00085EC90E09587848784EC90E097878687EB
:1012F00080EC90E0918B808B81EC90E0938B828BE3
:1013000082EC90E0958B848B86EC90E0978B868BBB
:10131000118E128E138E148E08951F93FC0199273F
:101320008827BC01E89411911032E9F3193010F0CC
:101330001E30C8F31B3251F01D3249F4689406C0C8
:101340000E94B409610F711D811D911D11911053EF
:101350001A30B0F33EF490958095709561957F4F6B
:101360008F4F9F4F1F910895592F482F372F262FAA
:10137000660F771F881F991F660F771F881F991F99
:10138000620F731F841F951F660F771F881F991F99
:10139000089591110C94D209803219F0895085502A
:1013A000C8F70895992788270895052E97FB1EF4FE
:1013B00000940E94EC0957FD07D00E942B0A07FCFD
:1013C00003D04EF40C94EC0950954095309521953E
:1013D0003F4F4F4F5F4F0895909580957095619561
:1013E0007F4F8F4F9F4F08952F923F924F925F9262
:1013F0006F927F928F929F92AF92BF92CF92DF9225
:10140000EF92FF920F931F93CF93DF93CDB7DEB789
:10141000CA1BDB0B0FB6F894DEBF0FBECDBF09941D
:101420002A88398848885F846E847D848C849B8474
:10143000AA84B984C884DF80EE80FD800C811B8182
:10144000AA81B981CE0FD11D0FB6F894DEBF0FBEB1
:10145000CDBFED010895A1E21A2EAA1BBB1BFD0111
:101460000DC0AA1FBB1FEE1FFF1FA217B307E40783
:10147000F50720F0A21BB30BE40BF50B661F771FDB
:10148000881F991F1A9469F76095709580959095BB
:101490009B01AC01BD01CF010895A29FB001B39F94
:1014A000C001A39F700D811D1124911DB29F700D6D
:1014B000811D1124911D08950E944D0AB7FF0895C2
:1014C000821B930B0895EE0FFF1F0590F491E02D02
:1014D00009940F931F93CF93DF938230910510F4FB
:1014E00082E090E0E0916302F091640230E020E05D
:1014F000B0E0A0E0309799F42115310509F44AC015
:10150000281B390B24303105D8F58A819B81611560
:10151000710589F1FB0193838283FE0111C0408133
:1015200051810281138148175907E0F04817590784
:1015300099F4109761F012960C93129713961C93DE
:101540003296CF01DF91CF911F910F9108950093B3
:10155000630210936402F4CF2115310551F0421754
:10156000530738F0A901DB019A01BD01DF01F80141
:10157000C1CFEF01F9CF9093640280936302CDCF86
:10158000FE01E20FF31F81939193225031093983B9
:101590002883D7CF2091610230916202232B41F43E
:1015A00020910D0130910E0130936202209361026F
:1015B00020910B0130910C012115310541F42DB71B
:1015C0003EB740910F0150911001241B350BE09163
:1015D0006102F0916202E217F307A0F42E1B3F0BA9
:1015E0002817390778F0AC014E5F5F4F2417350795
:1015F00048F04E0F5F1F5093620240936102819347
:1016000091939FCFF0E0E0E09CCFCF93DF930097E2
:10161000E9F0FC01329713821282A0916302B0912B
:101620006402ED0130E020E01097A1F420813181C7
:10163000820F931F209161023091620228173907AF
:1016400009F061C0F0936202E0936102DF91CF91F3
:101650000895EA01CE17DF07E8F54A815B819E0114
:1016600041155105B1F7E901FB83EA83499159918D
:10167000C40FD51FEC17FD0761F48081918102969C
:10168000840F951FE90199838883828193819B83CD
:101690008A83F0E0E0E012968D919C911397009779
:1016A000B9F52D913C911197CD010296820F931FB0
:1016B00020916102309162022817390739F630977C
:1016C00051F51092640210926302B0936202A093EB
:1016D0006102BCCFD383C28340815181840F951FA7
:1016E000C817D90761F44E5F5F4F88819981480F11
:1016F000591F518340838A819B8193838283211563
:10170000310509F0B0CFF0936402E09363029ECFFD
:10171000FD01DC01C0CF13821282D7CFB0E0A0E080
:10172000E4E9FBE00C94F6098C01009751F4CB013D
:101730000E94690A8C01C801CDB7DEB7E0E10C94C4
:10174000120AFC01E60FF71F9C0122503109E21733
:10175000F30708F49DC0D901CD91DC911197C6170C
:10176000D70798F0C530D10530F3CE01049786171E
:10177000970708F3C61BD70B2297C193D1936D939C
:101780007C93CF010E94050BD6CF5B01AC1ABD0A3A
:101790004C018C0E9D1EA0916302B0916402512CED
:1017A000412CF12CE12C109731F580916102909140
:1017B00062028815990509F05CC04616570608F0C4
:1017C00058C080910B0190910C01009741F48DB7A6
:1017D0009EB740910F0150911001841B950BE817A3
:1017E000F90708F055C0F0936202E0936102F90135
:1017F00071836083A0CF8D919C91119712966C900C
:10180000129713967C901397A815B90559F56C019A
:1018100042E0C40ED11CCA14DB0420F1AC014A1909
:101820005B09DA011296159780F062827382518308
:101830004083D9016D937C93E114F10471F0D701D9
:101840001396FC93EE93129776CF22968C0F9D1FE2
:10185000F90191838083F301EFCFF0936402E09369
:10186000630269CF4816590608F42C017D01D301A3
:101870009ACFCB010E94690A7C01009749F0AE0122
:10188000B8010E944B0CC8010E94050B870153CF81
:1018900010E000E050CFFB01DC0102C001900D928E
:1018A00041505040D8F70895FB01DC018D91019023
:1018B00080190110D9F3990B0895FB01DC01019007
:1018C0000D920020E1F70895FB01DC0141505040EA
:1018D00030F08D910190801919F40020B9F7881B20
:0818E000990B0895F894FFCF65
:1018E8007D017D0101000100010001000065028009
:1018F800000000000050027E01AB019D020E02BAFA
:101908000100020D0A0052657365742074726967DC
:101918006765726564210064697361626C65206241
:101928007574746F6E00656E61626C6520627574A3
:10193800746F6E0064697361626C6520706F740007
:10194800656E61626C6520706F74004C65644F66EB
:1019580066004C65644F6E004C6564506F77657225
:1019680000726573657400436F6D6D616E64206508
:0A197800786563757465643A200019
:00000001FF
